:020000040800F2
:1000000000000220A9010008DD8000089B620108B1
:10001000DD800008DD800008DD80000800000000B1
:10002000000000000000000000000000DD8000086B
:10003000DD80000800000000DD8000087D5200081F
:10004000DD800008DD800008DD800008DD8000081C
:1000500000000000DD800008B151000807510008D1
:10006000E54C0008DD800008DD800008DD80000828
:10007000DD800008DD800008DD800008DD800008EC
:10008000DD800008DD800008DD800008DD800008DC
:10009000DD800008DD800008DD800008DD800008CC
:1000A000DD800008DD800008DD800008DD800008BC
:1000B000DD800008DD800008DD800008DD800008AC
:1000C000DD800008DD800008DD800008DD8000089C
:1000D000DD800008DD800008DD800008DD8000088C
:1000E000DD800008DD800008DD800008DD8000087C
:1000F000DD800008DD800008DD800008DD8000086C
:10010000DD800008DD800008DD800008DD8000085B
:10011000DD800008DD800008DD800008DD8000084B
:10012000DD800008314C0008DD800008DD8000081B
:10013000DD800008A34C0008DD800008DD80000899
:10014000DD800008DD800008DD800008DD8000081B
:10015000DD800008DD800008DD800008DD8000080B
:10016000DD800008DD800008DD800008DD800008FB
:10017000DD800008DD800008DD800008DD800008EB
:10018000DD800008DD8000080000000000000000A5
:10019000000000000000000000000000000000005F
:0801A000DD800008DD8000088D
:1001A8000024E443A64607F096FFA6460E480F49EA
:1001B8000022814201D004C0FBE70D480D490E4AD8
:1001C800814202D008CA08C0FAE70C484FF470010F
:1001D800026842EA01020260BFF34F8FBFF36F8FDC
:1001E80000B502F029F900DE10090020D8D000205F
:1001F8000000002010090020D8AC010888ED00E0BC
:10020800F0B503AF2DE9000B42F230099846C4F26D
:100218000109154659F8046CD4B2C6F3035007F027
:1002280098F8C0B2A04204D2284607F0A4F860F3B8
:10023800175649F8046C06F05DFD0546DFE804F042
:10024800083A0F4116484F565D1D64242B6B303514
:10025800D9F8040065F30400C9F8040061E0D9F88E
:10026800040065F38E20C9F804005AE0D9F80400A8
:1002780065F31850C9F8040053E0D9F8000065F395
:10028800D330C9F800004CE0D9F8000065F35D6090
:10029800C9F8000045E059F8040C65F304003EE095
:1002A80059F8040C65F38E2039E059F8040C65F30D
:1002B800D33034E0D9F8040065F34910C9F80400D4
:1002C8002FE0D9F8040065F3D330C9F8040028E01A
:1002D800D9F8040065F35D60C9F8040021E0D9F895
:1002E800000065F30400C9F800001AE0D9F800001E
:1002F80065F34910C9F8000013E0D9F8000065F368
:100308008E20C9F800000CE0D9F8000065F31850F9
:10031800C9F8000005E059F8040C65F3491049F8DC
:10032800040C404607F027F8E9B2C3B20A2909D2FB
:1003380059F8200C032206F063F949F8200CBDE8AF
:10034800000BF0BD13290AD259F8240C0A390322EC
:1003580006F056F949F8240CBDE8000BF0BD46F24A
:10036800C02046F22C32C0F60100C0F601020F216F
:1003780011F00DFFFEDED4D4F0B503AF2DE9000B6C
:1003880042F230099846C4F20109154659F8046C3E
:10039800D4B2C6F3035006F0DCFFC0B2A04204D2C8
:1003A800284606F0E8FF60F3175649F8046C06F093
:1003B800A3FC0546DFE804F0083A0F4116484F56FB
:1003C8005D1D64242B6B3035D9F8040065F30400F7
:1003D800C9F8040061E0D9F8040065F38E20C9F873
:1003E80004005AE0D9F8040065F31850C9F804006D
:1003F80053E0D9F8000065F3D330C9F800004CE0A9
:10040800D9F8000065F35D60C9F8000045E059F8C7
:10041800040C65F304003EE059F8040C65F38E20E3
:1004280039E059F8040C65F3D33034E0D9F8040006
:1004380065F34910C9F804002FE0D9F8040065F302
:10044800D330C9F8040028E0D9F8040065F35D60EA
:10045800C9F8040021E0D9F8000065F30400C9F8E0
:1004680000001AE0D9F8000065F34910C9F8000047
:1004780013E0D9F8000065F38E20C9F800000CE0FD
:10048800D9F8000065F31850C9F8000005E059F8DC
:10049800040C65F3491049F8040C404606F06BFF5C
:1004A800E9B2C3B20A2909D259F8200C032206F08E
:1004B800A7F849F8200CBDE8000BF0BD13290AD2B3
:1004C80059F8240C0A39032206F09AF849F8240C42
:1004D800BDE8000BF0BD46F2C02046F22C32C0F653
:1004E8000100C0F601020F2111F051FEFEDED4D446
:1004F800F0B503AF2DE9000B42F230199846C4F26B
:100508000109154659F8046CD4B2C6F3035006F035
:1005180020FFC0B2A04204D2284606F02CFF60F3A8
:10052800175649F8046C06F0EBFB0546DFE804F0C3
:10053800083A0F4116484F565D1D64242B6B303521
:10054800D9F8040065F30400C9F8040061E0D9F89B
:10055800040065F38E20C9F804005AE0D9F80400B5
:1005680065F31850C9F8040053E0D9F8000065F3A2
:10057800D330C9F800004CE0D9F8000065F35D609D
:10058800C9F8000045E059F8040C65F304003EE0A2
:1005980059F8040C65F38E2039E059F8040C65F31A
:1005A800D33034E0D9F8040065F34910C9F80400E1
:1005B8002FE0D9F8040065F3D330C9F8040028E027
:1005C800D9F8040065F35D60C9F8040021E0D9F8A2
:1005D800000065F30400C9F800001AE0D9F800002B
:1005E80065F34910C9F8000013E0D9F8000065F375
:1005F8008E20C9F800000CE0D9F8000065F3185007
:10060800C9F8000005E059F8040C65F3491049F8E9
:10061800040C404606F0AFFEE9B2C3B20A2909D27B
:1006280059F8200C032205F0EBFF49F8200CBDE82F
:10063800000BF0BD13290AD259F8240C0A390322F9
:1006480005F0DEFF49F8240CBDE8000BF0BD46F2CA
:10065800C02046F23C32C0F60100C0F601020F216C
:1006680011F095FDFEDED4D4F0B503AF2DE9000BF3
:1006780042F230199846C4F20109154659F8046C3B
:10068800D4B2C6F3035006F064FEC0B2A04204D24E
:10069800284606F070FE60F3175649F8046C06F019
:1006A8002DFB0546DFE804F0083A0F4116484F567F
:1006B8005D1D64242B6B3035D9F8040065F3040004
:1006C800C9F8040061E0D9F8040065F38E20C9F880
:1006D80004005AE0D9F8040065F31850C9F804007A
:1006E80053E0D9F8000065F3D330C9F800004CE0B6
:1006F800D9F8000065F35D60C9F8000045E059F8D5
:10070800040C65F304003EE059F8040C65F38E20F0
:1007180039E059F8040C65F3D33034E0D9F8040013
:1007280065F34910C9F804002FE0D9F8040065F30F
:10073800D330C9F8040028E0D9F8040065F35D60F7
:10074800C9F8040021E0D9F8000065F30400C9F8ED
:1007580000001AE0D9F8000065F34910C9F8000054
:1007680013E0D9F8000065F38E20C9F800000CE00A
:10077800D9F8000065F31850C9F8000005E059F8E9
:10078800040C65F3491049F8040C404606F0F3FDE3
:10079800E9B2C3B20A2909D259F8200C032205F09C
:1007A8002FFF49F8200CBDE8000BF0BD13290AD231
:1007B80059F8240C0A39032205F022FF49F8240CC1
:1007C800BDE8000BF0BD46F2C02046F23C32C0F650
:1007D8000100C0F601020F2111F0D9FCFEDED4D4CD
:1007E800F0B503AF2DE9000B42F230299846C4F268
:1007F8000109154659F8046CD4B2C6F3035006F043
:10080800A8FDC0B2A04204D2284606F0B4FD60F3A9
:10081800175649F8046C06F075FA0546DFE804F047
:10082800083A0F4116484F565D1D64242B6B30352E
:10083800D9F8040065F30400C9F8040061E0D9F8A8
:10084800040065F38E20C9F804005AE0D9F80400C2
:1008580065F31850C9F8040053E0D9F8000065F3AF
:10086800D330C9F800004CE0D9F8000065F35D60AA
:10087800C9F8000045E059F8040C65F304003EE0AF
:1008880059F8040C65F38E2039E059F8040C65F327
:10089800D33034E0D9F8040065F34910C9F80400EE
:1008A8002FE0D9F8040065F3D330C9F8040028E034
:1008B800D9F8040065F35D60C9F8040021E0D9F8AF
:1008C800000065F30400C9F800001AE0D9F8000038
:1008D80065F34910C9F8000013E0D9F8000065F382
:1008E8008E20C9F800000CE0D9F8000065F3185014
:1008F800C9F8000005E059F8040C65F3491049F8F7
:10090800040C404606F037FDE9B2C3B20A2909D201
:1009180059F8200C032205F073FE49F8200CBDE8B5
:10092800000BF0BD13290AD259F8240C0A39032206
:1009380005F066FE49F8240CBDE8000BF0BD46F250
:10094800C02046F24C32C0F60100C0F601020F2169
:1009580011F01DFCFEDED4D4F0B503AF2DE9000B79
:1009680042F230299846C4F20109154659F8046C38
:10097800D4B2C6F3035006F0ECFCC0B2A04204D2D5
:10098800284606F0F8FC60F3175649F8046C06F0A0
:100998004EF90546DFE804F0083A0F4116484F566D
:1009A8005D1D64242B6B3035D9F8040065F3040011
:1009B800C9F8040061E0D9F8040065F38E20C9F88D
:1009C80004005AE0D9F8040065F31850C9F8040087
:1009D80053E0D9F8000065F3D330C9F800004CE0C3
:1009E800D9F8000065F35D60C9F8000045E059F8E2
:1009F800040C65F304003EE059F8040C65F38E20FE
:100A080039E059F8040C65F3D33034E0D9F8040020
:100A180065F34910C9F804002FE0D9F8040065F31C
:100A2800D330C9F8040028E0D9F8040065F35D6004
:100A3800C9F8040021E0D9F8000065F30400C9F8FA
:100A480000001AE0D9F8000065F34910C9F8000061
:100A580013E0D9F8000065F38E20C9F800000CE017
:100A6800D9F8000065F31850C9F8000005E059F8F6
:100A7800040C65F3491049F8040C404606F07BFC69
:100A8800E9B2C3B20A2909D259F8200C032205F0A9
:100A9800B7FD49F8200CBDE8000BF0BD13290AD2B8
:100AA80059F8240C0A39032205F0AAFD49F8240C48
:100AB800BDE8000BF0BD46F2C02046F24C32C0F64D
:100AC8000100C0F601020F2111F061FBFEDED0B576
:100AD80002AF0B6A6BB146F21043C4F2020353F83B
:100AE800104CA4065CD40021C0E901120121016068
:100AF800D0BD46F2104EC4F2020EDEF80030DB071D
:100B080029D0DEF800C0DEF8003023F01E03CEF84E
:100B18000030DEF8003023F00103CEF80030DEF8B4
:100B28000030DB070CD0DEF80030DB071CBFDEF836
:100B380000305FEAC37303D0DEF80030DB07EED184
:100B48003D234EF8083C4FEA5C03DEF8004063F3AF
:100B58004404CEF8004020234EF8083CCEF80C2080
:100B68000223D1F81CC0CEF80430DEF80030BCF106
:100B7800000FCA6143F00101CEF800101FBF002129
:100B88000172C0E9001CD0BD46F2E43046F23042A2
:100B9800C0F60100C0F601022B2111F0F8FAFEDEC2
:100BA8008C8C4FF0200C43F808CC022C04D901217E
:100BB8008260C0E90011D0BD1C6824031AD41A61F0
:100BC8001C6994422FD10B6A0A62002B1FBF0121B6
:100BD8000172436000211CBF0160D0BD46F2E430C1
:100BE80046F22042C0F60100C0F601022B2111F0A6
:100BF800CEFAFEDEDA60DC68944214D1CB69CA61B1
:100C0800002B1FBF00210172C0E90013D0BD46F2BE
:100C1800E43046F21042C0F60100C0F601022B2172
:100C280011F0B5FAFEDE022182604160202143F80E
:100C3800081C01210160D0BDD0B502AF0B6A6BB1B1
:100C480046F22843C4F2020353F8284C24055ED424
:100C58000021C0E9011201210160D0BD46F2284EF1
:100C6800C4F2020EDEF80030DB072AD0DEF800C03E
:100C7800DEF8003023F01E03CEF80030DEF8003036
:100C880023F00103CEF80030DEF80030DB070CD08B
:100C9800DEF80030DB071CBFDEF800305FEAC37304
:100CA80003D0DEF80030DB07EED14FF474634EF862
:100CB800203C4FEA5C03DEF8004063F34404CEF8BE
:100CC80000404FF400634EF8203CCEF80C2002237D
:100CD800D1F81CC0CEF80430DEF80030BCF1000FAB
:100CE800CA6143F00101CEF800101FBF0021017254
:100CF800C0E9001CD0BD46F2E43046F23042C0F6EE
:100D08000100C0F601022B2111F041FAFEDE8C8CA5
:100D18004FF4006C43F820CC022C04D901218260E6
:100D2800C0E90011D0BD1C6824031AD41A611C69DB
:100D380094422FD10B6A0A62002B1FBF0121017256
:100D4800436000211CBF0160D0BD46F2E43046F28A
:100D58002042C0F60100C0F601022B2111F017FA5B
:100D6800FEDEDA60DC68944214D1CB69CA61002BDC
:100D78001FBF00210172C0E90013D0BD46F2E43064
:100D880046F21042C0F60100C0F601022B2111F014
:100D9800FEF9FEDE0221826041604FF4006143F8F3
:100DA800201C01210160D0BDD0B502AF0B6A6BB128
:100DB80046F24043C4F2020353F8404CA4025ED406
:100DC8000021C0E9011201210160D0BD46F2404E68
:100DD800C4F2020EDEF80030DB072AD0DEF800C0CD
:100DE800DEF8003023F01E03CEF80030DEF80030C5
:100DF80023F00103CEF80030DEF80030DB070CD01A
:100E0800DEF80030DB071CBFDEF800305FEAC37392
:100E180003D0DEF80030DB07EED14FF474134EF840
:100E2800383C4FEA5C03DEF8004063F34404CEF834
:100E380000404FF400134EF8383CCEF80C20022343
:100E4800D1F81CC0CEF80430DEF80030BCF1000F39
:100E5800CA6143F00101CEF800101FBF00210172E2
:100E6800C0E9001CD0BD46F2E43046F23042C0F67C
:100E78000100C0F601022B2111F089F9FEDE8C8CED
:100E88004FF4001C43F838CC022C04D901218260AD
:100E9800C0E90011D0BD1C6824031AD41A611C696A
:100EA80094422FD10B6A0A62002B1FBF01210172E5
:100EB800436000211CBF0160D0BD46F2E43046F219
:100EC8002042C0F60100C0F601022B2111F05FF9A3
:100ED800FEDEDA60DC68944214D1CB69CA61002B6B
:100EE8001FBF00210172C0E90013D0BD46F2E430F3
:100EF80046F21042C0F60100C0F601022B2111F0A3
:100F080046F9FEDE0221826041604FF4001143F889
:100F1800381C01210160D0BDF0B503AF2DE9000FE9
:100F280093B08146B8680D4646F2284AC4F2020AD0
:100F38001C4601781646009141780191817802910A
:100F4800C1780491017B0B91C17A0A91817A099148
:100F5800417A0891C179079181790691417990F890
:100F68000880007905910390DAF80000C00729D0BD
:100F7800DAF80000DAF8001021F01E01CAF80010B3
:100F8800DAF8001021F00101CAF80010DAF80010B0
:100F9800C9070CD0DAF80010C9071CBFDAF800102E
:100FA8005FEAC17103D0DAF80010C907EED14FF437
:100FB800746140084AF8201CDAF8001060F3440114
:100FC800CAF80010DAF80000022161F35B60CAF881
:100FD800000005F083FEDAF8000020F0C000CAF82F
:100FE800000042F24C200C96C4F20100CAF80C60D2
:100FF800CAF8080054B1CAF81040B8F1000F18BF79
:101008004FF001084FEA884BA04606E0B8F1000F00
:101018004FF0000BA04640F0A18002264FF4746008
:10102800CAF804604AF8200CDAF80040009805F085
:1010380056FE60F31144CAF80040DAF800000121B6
:1010480061F34E30CAF80000DAF8000061F3CC20F2
:10105800CAF80000DAF80000019920F4806000293D
:1010680018BF00F58060CAF80000DAF8000002999D
:1010780020F40070002918BF00F50070CAF80000BD
:10108800DAF80000049920F01000002918BF103089
:10109800CAF80000DAF80000039920F008000029D7
:1010A80018BF0830CAF80000DAF80000059920F0E7
:1010B8000400002918BF0430CAF80000DAF800005C
:1010C800069920F00200002918BF0230CAF8000073
:1010D800DAF81400079920F08000002918BF803042
:1010E800CAF81400DAF8000020F4802040EA0B0067
:1010F800CAF80000DAF81440089805F0F0FD60F32B
:101108000104CAF81440DAF81400099920F0040020
:10111800002918BF0430CAF81400DAF800400A9809
:1011280005F0DDFD60F3D854CAF80040DAF8004055
:101138000B9805F0D4FD60F35654CAF800400ECD64
:1011480048460EC095E81E001EC00C98A9F82460F9
:10115800C9E9070813B0BDE8000FF0BD46F25C30DE
:1011680046F2D431C0F60100C0F601011190012009
:101178000E9046F2CC30C0F60100CDF848B00D9084
:101188000DA8CDF83CB011F05BF8FEDEF0B503AF6A
:101198002DE9000F93B08146B8680D4646F2404AE3
:1011A800C4F2020A1C460178164600914178019162
:1011B80081780291C1780491017B0B91C17A0A91DF
:1011C800817A0991417A0891C179079181790691CB
:1011D800417990F80880007905910390DAF80000C9
:1011E800C00729D0DAF80000DAF8001021F01E0153
:1011F800CAF80010DAF8001021F00101CAF800104E
:10120800DAF80010C9070CD0DAF80010C9071CBFBB
:10121800DAF800105FEAC17103D0DAF80010C907E4
:10122800EED14FF4741140084AF8381CDAF800106F
:1012380060F34401CAF80010DAF80000012161F3F4
:101248005B60CAF8000005F049FDDAF8000020F0FC
:10125800C000CAF8000042F24C100C96C4F201001B
:10126800CAF80C60CAF8080054B1CAF81040B8F1BE
:10127800000F18BF4FF001084FEA884BA04606E060
:10128800B8F1000F4FF0000BA04640F0A1800226F5
:101298004FF47410CAF804604AF8380CDAF80040C1
:1012A800009805F01CFD60F31144CAF80040DAF814
:1012B8000000012161F34E30CAF80000DAF800009E
:1012C80061F3CC20CAF80000DAF80000019920F494
:1012D8008060002918BF00F58060CAF80000DAF8BD
:1012E8000000029920F40070002918BF00F5007072
:1012F800CAF80000DAF80000049920F0100000296C
:1013080018BF1030CAF80000DAF80000039920F07E
:101318000800002918BF0830CAF80000DAF80000F1
:10132800059920F00400002918BF0430CAF800000D
:10133800DAF80000069920F00200002918BF0230F0
:10134800CAF80000DAF81400079920F08000002994
:1013580018BF8030CAF81400DAF8000020F48020A2
:1013680040EA0B00CAF80000DAF81440089805F0C3
:10137800B6FC60F30104CAF81440DAF814000999BD
:1013880020F00400002918BF0430CAF81400DAF865
:1013980000400A9805F0A3FC60F3D854CAF800404E
:1013A800DAF800400B9805F09AFC60F35654CAF836
:1013B80000400ECD48460EC095E81E001EC00C9891
:1013C800A9F82460C9E9070813B0BDE8000FF0BD0B
:1013D80046F25C3046F2D431C0F60100C0F6010195
:1013E800119001200E9046F2CC30C0F60100CDF8E5
:1013F80048B00D900DA8CDF83CB010F021FFFEDEEE
:10140800F0B503AF2DE9000F93B08146B8680D46DB
:1014180046F2104AC4F2020A1C46017816460091A8
:101428004178019181780291C1780491017B0B91F7
:10143800C17A0A91817A0991417A0891C179079113
:1014480081790691417990F8088000790591039097
:10145800DAF80000C00728D0DAF80000DAF800103F
:1014680021F01E01CAF80010DAF8001021F001017D
:10147800CAF80010DAF80010C9070CD0DAF8001022
:10148800C9071CBFDAF800105FEAC17103D0DAF8A7
:101498000010C907EED13D2140084AF8081CDAF8C7
:1014A800001060F34401CAF80010DAF8000020F0D8
:1014B8006060CAF8000005F011FCDAF8000020F0BE
:1014C800C000CAF8000042F24C000C96C4F20100B9
:1014D800CAF80C60CAF8080054B1CAF81040B8F14C
:1014E800000F18BF4FF001084FEA884BA04606E0EE
:1014F800B8F1000F4FF0000BA04640F0A080022684
:101508003D20CAF804604AF8080CDAF80040009850
:1015180005F0E5FB60F31144CAF80040DAF8000072
:10152800012161F34E30CAF80000DAF8000061F3D7
:10153800CC20CAF80000DAF80000019920F4806095
:10154800002918BF00F58060CAF80000DAF800002A
:10155800029920F40070002918BF00F50070CAF83D
:101568000000DAF80000049920F01000002918BFE4
:101578001030CAF80000DAF80000039920F00800DB
:10158800002918BF0830CAF80000DAF800000599E9
:1015980020F00400002918BF0430CAF80000DAF867
:1015A8000000069920F00200002918BF0230CAF88E
:1015B8000000DAF81400079920F08000002918BF0D
:1015C8008030CAF81400DAF8000020F4802040EADD
:1015D8000B00CAF80000DAF81440089805F07FFB01
:1015E80060F30104CAF81440DAF81400099920F0ED
:1015F8000400002918BF0430CAF81400DAF80040C3
:101608000A9805F06CFB60F3D854CAF80040DAF881
:1016180000400B9805F063FB60F35654CAF800408D
:101628000ECD48460EC095E81E001EC00C98A9F8BD
:101638002460C9E9070813B0BDE8000FF0BD46F201
:101648005C3046F2D431C0F60100C0F601011190B9
:1016580001200E9046F2CC30C0F60100CDF848B01B
:101668000D900DA8CDF83CB010F0EAFDFEDED0B527
:1016780002AF84B0006840B101280DD101AC46F238
:101688004742C0F601020B230CE001AC46F252427D
:10169800C0F60102082305E001AC46F24042C0F65C
:1016A80001020723204612F01FFC204611F062F8C1
:1016B80004B0D0BD084646F29A41C0F601010222A4
:1016C80011F08FBF7047D4D4F0B503AF2DE9000FE8
:1016D800C3B081460A20002103F067F8002840F0D3
:1016E8009D81D9F80850D9E900402E7802900A2E39
:1016F8005BD20A202870602009F0FEFE4DF2D86AFD
:10170800C2F2000ABAF8000000EE100A2046B8EE4D
:10171800400A0BF06FFBBAF8020084ED1A0A01EEDA
:10172800100A04F11000B8EE411AB0EE410A0BF0AD
:1017380061FBBAF8040084ED1B0A01EE100A04F1FB
:101748002000B8EE411AB0EE410A0BF053FBBAF88C
:10175800060084ED1C0A01EE100A04F13000B8EE10
:10176800411AB0EE410A0BF045FBBAF80A0084EDC5
:101778001D0A01EE100A04F15000B8EE411AB0EE4D
:10178800410A0BF037FBBAF8080084ED1F0A01EE96
:10179800100A0020A0EB0610B8EE411AC0B284ED82
:1017A8001E1A09F0A9FE2E7048E04DF2D865C2F263
:1017B8000005288800EE100A2046B8EE400A0BF013
:1017C80019FB688884ED1A0A01EE100A04F110006A
:1017D800B8EE411AB0EE410A0BF00CFBA88884ED74
:1017E8001B0A01EE100A04F12000B8EE411AB0EE0F
:1017F800410A0BF0FFFAE88884ED1C0A01EE100A92
:1018080004F13000B8EE411AB0EE410A0BF0F2FADA
:10181800688984ED1D0A01EE100A04F15000B8EE43
:10182800411AB0EE410A0BF0E5FA288984ED1F0A47
:1018380001EE100AB8EE411A84ED1E1AD9F80CA070
:1018480004F1830904F1820504F164089AF800B0F0
:10185800BBF10C0F10D20C208AF80000402009F0D0
:101868004BFE4DF24470C2F2000002684168BFF3BB
:101878005F8F8A4233D150E04DF24470C2F20000CB
:1018880002684168BFF35F8F8A4256D102992046A9
:101898009FED6B0A02F0D4FD94F8811040F2140C0D
:1018A800C4F2020C51B199F80010002900F06B80C5
:1018B8004FF400714FF08062002307E02978002977
:1018C80064D04FF000714FF48062012384F88130B6
:1018D800CCF80420CCF8041094F881E058E00121F9
:1018E80005E002684368BFF35F8F9A4215D0C2EBE8
:1018F8004213013202F00F0200EB83031B7ABFF39D
:101908005F8F026003F00F02033A052AE9D82B46DD
:10191800DFE802F00F0E110C0C030020A0EB0B10F7
:10192800C0B209F0E9FD8AF800B0AFE7FFE7D8E7F1
:101938004B461970D5E74346FBE7012105E00268ED
:101948004368BFF35F8F9A42A0D0C2EB42130132C3
:1019580002F00F0200EB83031B7ABFF35F8F026074
:1019680003F00F02033A052AE9D82B46DFE802F014
:1019780007060904040389E7FFE7E0E74B46197007
:10198800DDE74346FBE74FF0010E01E04FF0000EA4
:1019980004F1680A0022A4F882204FF480769AE8BD
:1019A8000007D4E91D50E16F94F88020DCF800406E
:1019B800DCF80030C4F3003406EAD3032344DCF82F
:1019C8000040DCF8006004F4806406F4007643EA22
:1019D800841343EAC6333426C4F201063668CDE9D7
:1019E800275024A880E8000706208DF88C00B0B2A4
:1019F8008DF8A8200028299123A9CDF8AA304FF006
:101A080002028DF8A9E018BF01208DF8AE0003A8E6
:101A180003F086F843B0BDE8000FF0BD46F2E4409D
:101A280046F2C843C0F6010042AA009046F29C4024
:101A3800C0F60100C0F601032B2110F092FCFEDE77
:101A48000AD7233C7047F0B503AF4DF804BD84B006
:101A58000446F868B96804F10C05D0E900238068E9
:101A6800CDE9012301AA0390284600F0F0FA0646C2
:101A78002846214604F0F4F8F1B2B1F10C0018BF81
:101A8800084604B05DF804BBF0BDF0B503AF2DE91E
:101A9800000FD3B0029002208B46002681F8100177
:101AA8000D4681F8F800924681F8E00016AA81F800
:101AB800C8004FF0080881F8B00081F8980081F854
:101AC800800001F55A710BF8680F4FF400704590CB
:101AD800CDE91B0605F5AD60449105F52A71CDE900
:101AE800196005F54270409140A9169003A8CDE908
:101AF8004666CDE94266CDF804811D96CDE9178684
:101B080009F0F0FB48F200002DACC0F2E10016A984
:101B180016902046ADF85C6008F03CF8204606F0C8
:101B2800E2FB05F5ED64BDF8B8002D994FF0010909
:101B3800ADF839012046CDF83511012106F0F8FB42
:101B480005F5947040A9CDE94466CDE94A9016A8F8
:101B5800CDE940668DF83B618DF83491CDF8308140
:101B6800CDE94895CDE946A4CDE942B802F0F4FBA9
:101B780040AC03A94C22204614F0BDF92DA82146FB
:101B880009F07CFCDDE929A96FF0670009FB00F08A
:101B98000025811900F0A1801AF806200AEB060436
:101BA800022A25D011F1680200F0978094F8682085
:101BB800022A18D011F1D00200F08F8094F8D020BA
:101BC800022A13D011F59C7F00F0878094F8381111
:101BD80006F5D07604350229DBD10AEB0600013D73
:101BE800A0F1680404E06834013501E0D03402351E
:101BF80040AE2DA94C22304614F07DF928462146E6
:101C0800324606F069FA054681455DD9682005FB2C
:101C180000F11AF8011002296BD005FB00A018305A
:101C280009F032FC002870D0044640A846F2DD31A5
:101C380007F0E5FCBDF80001002872D0B4F84000B8
:101C4800002870D1DDE94001C4E9100109F04BFC1E
:101C5800044609F03BFC09F052FC4DF28801C2F23F
:101C68000001D1E9000280F00100104304F00100F6
:101C78000ED14EF21002CEF200021268D1E90246ED
:101C8800D20307D5013446F10006C1E9024601E056
:101C980000240026002808BF09F01AFC4FF47A70C7
:101CA800A4FB002106FB001316A802F025FAC007C2
:101CB80041D1029C16A95822204614F0E8FAA565DD
:101CC80053B0BDE8000FF0BD46F624122846C0F612
:101CD8000102494610F094FAFEDE46F6900046F6F8
:101CE8001412C0F60100C0F60102232110F04FFAC9
:101CF800FEDE46F6701046F69812C0F60100C0F6F1
:101D08000102272110F043FAFEDE46F6341046F6AB
:101D18006012C0F60100C0F60102292110F032FA63
:101D2800FEDE022000E001208DF8000146F23C5062
:101D3800C0F6010005E046F24C508DF80011C0F6DF
:101D4800010046F22053009046F2F44040AAC0F643
:101D58000100C0F601032B2110F003FBFEDE7047E3
:101D6800F0B503AF2DE9000F85B0D0E901964E45D7
:101D78006AD205464FF4C36014462A6806FB002061
:101D880004F05FFA00284AD0E268CDE9002001A8F3
:101D9800D4E9018B029103F04AFF0446D8F8000009
:101DA8008A4690F8401000293FD0B0F84510BAF1A3
:101DB8000B0FD0F84100ADF8101003904DD903A8CF
:101DC80007F02DFB06294ED1016880886081C4F890
:101DD8000610BBF80400DBF80010ADF8100003A8EB
:101DE800039107F01CFB062942D10168BAF10D0FD7
:101DF8008088A080216043D9012007F03BFB00BA0E
:101E080003A9000CA081AAF10E00049004F10E00B1
:101E18000390009803F04DFBAE680B2406E00C24F9
:101E2800204605B0BDE8000FF0BD0824DDE901013A
:101E380003F011FF701C484528BF0020A860204609
:101E480005B0BDE8000FF0BD46F658023046C0F6B2
:101E58000102494610F0D4F9FEDE46F268720C2001
:101E6800C0F6010211E046F27872C0F6010203E002
:101E780046F25872C0F60102062012F07BFAFEDE26
:101E880046F288720E20C0F60102514612F028FA76
:101E9800FEDEF0B503AF2DE9000F93B0D0E901865F
:101EA800464580F0A78083464FF4C3601446DBF8AC
:101EB800002006FB002004F0C4F9002800F084800C
:101EC800029002A86568039103F0B1FE8246286873
:101ED800894690F8401000297CD0B0F84510B9F137
:101EE8000B0FD0F84100ADF81410049040F28B802D
:101EF80004AD284607F093FA062940F08A80026864
:101F080004F108018088AAF80A002846CAF80620C1
:101F18003CC93CC091E83C003CC0049801688088FA
:101F2800ADF834000CA80C9107F079FA062975D1A0
:101F380001688088AAF80400CAF800109DF8140007
:101F480000283FD0B9F10D0FCDF804806ED904A850
:101F580000F10408002007F08DFA00BA08AB0CACB9
:101F6800A9F10E09000CCDF84890AAF80C000AF166
:101F78000E0A0ECBDDE90660CDE90E1203F10C0264
:101F880011A9CDE90C602046CDF844A000F0CCFEA4
:101F9800404607F0CFFB814551D3DDF82CC02246DF
:101FA800214698E8784082E87840A9EB00030A9A2D
:101FB80000920AEB0002604606F04AF9DBF8086076
:101FC800DDF804800B2406E00C24204613B0BDE89D
:101FD800000FF0BD0824DDE9020103F03CFE701C8F
:101FE800404528BF0020CBF80800204613B0BDE8C4
:101FF800000FF0BD46F658023046C0F601024146D1
:1020080010F0FEF8FEDE46F268720C20C0F60102FF
:1020180011E046F27872C0F6010203E046F2587207
:10202800C0F60102062012F0A5F9FEDE46F288721B
:102038000E20C0F60102494612F052F9FEDE46F2C1
:10204800F8724946C0F6010212F025F9FEDEF0B535
:1020580003AF2DE9000F85B0D0E901964E4568D24F
:1020680083464FF4C3601446DBF8002006FB0020CB
:1020780004F0E7F8002846D0CDE9010101A8D4E929
:10208800015803F0D4FD044628688A4690F84010A9
:1020980000293ED0B0F84510BAF10B0FD0F8410036
:1020A800ADF8101003904DD903A807F0B8F9062928
:1020B8004ED10168808860814FF0FF30ADF8100084
:1020C800039003A8C4F8061007F0A9F9062944D11B
:1020D8000168BAF10D0F8088A080216045D90120E0
:1020E80007F0C8F900BA03A9000CA081AAF10E00F4
:1020F800049004F10E000390404603F0DAF9DBF88F
:1021080008600B2406E00C24204605B0BDE8000F4B
:10211800F0BD0824DDE9010103F09DFD701C484570
:1021280028BF0020CBF80800204605B0BDE8000F06
:10213800F0BD46F658023046C0F60102494610F096
:102148005FF8FEDE46F268720C20C0F6010211E06C
:1021580046F27872C0F6010203E046F25872C0F601
:102168000102062012F006F9FEDE46F288720E2001
:10217800C0F60102514612F0B3F8FEDE80B56F4694
:102188004DF2D4000124C2F20000047004F088FD6E
:1021980041F218054FF40018C4F202052026C5F8CC
:1021A800008055F8140C20F0200045F8140C55F860
:1021B800180C64F38B204CF2C064C0F22D0445F86F
:1021C800180C2046C5F8008009F084F920462E60D6
:1021D80009F080F9F5E780B56F468AB008A9019043
:1021E8000120069100210790CDE9030146F6680019
:1021F800C0F6010046F67C01029045F62300C0F6C1
:102208000000C0F60101099001A8089002A810F08A
:1022180017F8FEDE084646F68C01C0F601010222D8
:1022280011F0DFB970474DF278000023C2F20000C8
:10223800416842181372012222EA0101BFF35F8F3D
:1022480041607047D0B502AF40F6105048F6396C7F
:10225800C2F20000C3F6E30C43680024591CA1FB3A
:102268000C2E00F10802D454BFF35F8F4FEA5E03CF
:1022780003EBC303C91A416041684B1CA3FB0C4E16
:1022880001245454BFF35F8F4FEA5E0101EBC10193
:10229800591A416041684B1CA3FB0C4E022454544C
:1022A800BFF35F8F4FEA5E0101EBC101591A41602C
:1022B80041684B1CA3FB0C4E03245454BFF35F8F9F
:1022C8004FEA5E0101EBC101591A416041684B1C9C
:1022D800A3FB0C4E04245454BFF35F8F4FEA5E01F6
:1022E80001EBC101591A416041684B1CA3FB0C4E1C
:1022F80005245454BFF35F8F4FEA5E0101EBC1011F
:10230800591A416041684B1CA3FB0C4E06245454D7
:10231800BFF35F8F4FEA5E0101EBC101591A4160BB
:1023280041684B1CA3FB0C4C07245454BFF35F8F2C
:102338004FEA5C0101EBC101591A4160D0BDD0B52B
:1023480002AF4DF2C00048F6396CC2F20000C3F685
:10235800E30C43680024591CA1FB0C2E00F1080271
:10236800D454BFF35F8F4FEA5E0303EBC303C91A6C
:10237800416041684B1CA3FB0C4E01245454BFF32D
:102388005F8F4FEA5E0101EBC101591A4160416854
:102398004B1CA3FB0C4E02245454BFF35F8F4FEA2F
:1023A8005E0101EBC101591A416041684B1CA3FB56
:1023B8000C4E03245454BFF35F8F4FEA5E0101EBC8
:1023C800C101591A416041684B1CA3FB0C4E0424FF
:1023D8005454BFF35F8F4FEA5E0101EBC101591AF4
:1023E800416041684B1CA3FB0C4E05245454BFF3B9
:1023F8005F8F4FEA5E0101EBC101591A41604168E4
:102408004B1CA3FB0C4E06245454BFF35F8F4FEABA
:102418005E0101EBC101591A416041684B1CA3FBE5
:102428000C4C07245454BFF35F8F4FEA5C0101EB57
:10243800C101591A4160D0BD80B56F4609F046F810
:10244800FFF7F1FEFFF77BFFFFF7FCFE4DF2D5002B
:102458000121C2F200004FF4807201704EF2064072
:10246800CEF20000F02181704EF20011CEF2000190
:1024780060230A609022427080220A604022027023
:102488000A6080F833304FF000734B6080F83720D3
:102498004FF0005048604EF62350CEF20000002264
:1024A800027051F8F00C40F0020041F8F00C00F016
:1024B80003F802F0C9F8FEDEF0B503AF2DE9000F0E
:1024C800ADF22C4D4DF2D4000DF58278C2F2000029
:1024D80001210170404604F0ACFB59A9B8E87C0022
:1024E80008467CC0B8E87C007CC098E87C007CC0CA
:1024F800E8AC47F64002C0F27D12204604F00CFC1E
:1025080059AD2146284604F061FC4DF28014E8AE2E
:10251800C0F6F00429463046224604F045FC59AD81
:1025280031462246284604F009FC43F26044E8AEEE
:10253800C0F23C2429463046224604F011FC59AD2D
:1025480031462246284604F01DFC50AC2946204658
:1025580004F04EFC204604F0FAFE44F6D35100F590
:10256800FA70C1F26201A0FB01014FF0FF3000EBED
:1025780091100021B1EB106F40F0AB83002800F000
:10258800B4834EF21002CEF20002116821F001016C
:102598001160116841F004011160506004F053FBB0
:1025A80004F060FB04F06DFB04F07AFB04F087FB99
:1025B80041F200004FF40011C4F2020001258161CC
:1025C800022241680026C4F202064FF0806821F01A
:1025D80020014160016865F38B210160416821F4A5
:1025E80000714160416A65F307114162016862F355
:1025F800934101604FF08051B161716821F48051BD
:102608007160316865F3196131604FF00061B16143
:10261800716821F400617160316865F39751316028
:10262800C6F81880716821F480617160316865F3BB
:10263800155131604FF00071B161716821F400717A
:102648007160316865F393413160316841F0C001D0
:102658003160316841F440713160316841F4406162
:102668003160316841F440513160D0F8001441F4D0
:102678004011C0F8001450A9FA2003F0D1F840F234
:1026880000404FF0000AC4F2202059ACC0F800A066
:102698003420C4F20100C0F800A0204609F066FA10
:1026A800A7F1200120460022CDF8CCA18DF8C8A1C1
:1026B800CDF8C4A1CDE974AACDE976AACDE978AA66
:1026C80001F06AFF40F258249DF8E501C4F247245E
:1026D80000281FBF8DF8E5A1C6F818804FF40070D8
:1026E800B061C4F8005408F0FBFE2560C4F800A0EF
:1026F800E8AC204604F060FECAAD21460322284615
:1027080004F03AFE0DF5687929460022484604F09F
:102718003BFECAAC49460222204604F045FE0DF5B0
:10272800F47B21460122584604F036FE58464946B5
:1027380090E87C007CC17FAC012120464A4603F02A
:102748005EFE204604F068F8A7F120082046002223
:1027580007234146FDF754FD204641460122072341
:10276800FDF70AFE5846494690E87C007CC186ACD5
:10277800012120464A4604F05CF8204641460022E2
:102788000723FDF771FF2046414601220723FDF785
:10279800AFFE9BE86E008DAC48466EC02046012116
:1027A8004A4604F046F946F690012046C0F6010173
:1027B80000220723FEF7D0F82046414601220723CE
:1027C800FEF70EF808F08FFE044608F07FFE08F0CA
:1027D80096FE4DF2400104F00100C2F200010D79AD
:1027E80025B900228A460A6001220A71002808BF1A
:1027F80008F06EFE002D40F0578208F074FE044683
:1028080008F064FE04F0010508F079FE4DF2460078
:102818004FF00008C2F20000047924B9C0F8008023
:10282800012180460171002D08BF08F051FE002CDF
:1028380040F03A8208F057FE044608F047FE04F0DC
:10284800010508F05CFE4DF24C004FF00009C2F2A1
:102858000000047924B9C0F8009001218146017173
:10286800002D08BF08F034FE002C40F01D8208F04F
:102878003AFE044608F02AFE04F0010508F03FFE7F
:102888004DF252004FF0000BC2F20000047924B957
:10289800C0F800B0012183460171002D08BF08F07F
:1028A80017FE002C40F0008208F01DFE044608F0D8
:1028B8000DFE04F0010508F022FE4DF25800002636
:1028C800C2F2000004791CB90660012106460171B4
:1028D800002D08BF08F0FCFD002C40F0E58108F051
:1028E80002FE044608F0F2FD04F0010508F007FEB8
:1028F8004DF25E000021C2F2000004791CB90160AB
:10290800012101710146002D039108BF08F0E0FD87
:10291800002CCDE90669CDE904B840F0C5810DF574
:102928006879484604F0DCF90121BDF8A6038DF862
:10293800A3137FACDDF8A2134FF0010CADF85402DD
:10294800484694910DF54A78DDF8A9B39DF8A0633F
:102958000ECC0EC094E82E002EC052460023BDF8BF
:102968005402ADF82E03002094998DF8300396A8F0
:10297800CDF82A1349468DF829C38DF82863CDF878
:1029880031B3CDF80080FEF73BFD86AC48460DF527
:10299800207A0ECC0EC094E82E002EC0012200230F
:1029A800BDF854028DF82923079A9499ADF82E039F
:1029B8000020CDF82A1349468DF8300350468DF88B
:1029C8002863CDF831B3CDF80080FEF7DFFB8DAC7E
:1029D80048460ECC0EC094E82E002EC001220023DB
:1029E800BDF854028DF82923CDF831B30DF52A7BB3
:1029F800069A9499ADF82E030020CDF82A1349467B
:102A08008DF8300358468DF82863CDF80080FEF71E
:102A180083FA50AD48460DF54A784ECD4EC095E83C
:102A28005E005EC040F6285146F6A8631020C2F248
:102A38000001CDE90009C2F200034046102200F06F
:102A480066FDCA98002800F05C814DF2280998E8D4
:102A58007E00C2F2000948467EC0484603F03AFBB1
:102A6800E8AE40F2A011C2F200014A463046FFF734
:102A78000CF8B4A83146582213F009FCFE9C01F06A
:102A8800E8FD002840F01C81079401F033FE00287F
:102A980040F0168146F21045C4F2020596AC28684B
:102AA80040F001002860204603F08AFD286B40F0C2
:102AB80001002863504603F09CFFA86940F001001C
:102AC800A861584604F093F82AA8B4A9582213F02C
:102AD800DEFB27A809F045F80DF170096ECC0DF161
:102AE800200848466EC094E86E006EC012A8BAE886
:102AF8003E003EC09AE83E003EC04046BBE83E006D
:102B08003EC09BE83E003EC0E8A809F02AF8E8AAC3
:102B1800CAAB07CA07C3CDAB07C3D0AB07C3D3AB98
:102B280007C3D6AB07C3E8AAD9AB07CA07C3DCAB50
:102B380007C3DFAB07C3E2AB07C3E5AB07C3A7F126
:102B48002C0009F00EF8A7F12C02E8AB4DF25C5A04
:102B580007CAC2F2000A07C3EBAB07C3EEAB07C351
:102B6800F1AB07C3F4AB07C3A7F12C02F7AB07CA55
:102B7800CDF8101407C3FAAB07C3FDAB07C30DF5B7
:102B8800806307C3CAA9CDF80C040AF10400CDF884
:102B98001424782213F0AFF90AF17C00E8A978220E
:102BA80013F0A9F94DF2546059A9C2F20000842229
:102BB80013F0A1F94DF2E8602AA9C2F200005822E8
:102BC80013F065FB4DF244704FF4F961C2F2000056
:102BD80013F093F927AA59AB12AD4DF2407C07CAFE
:102BE800C2F2000C07C34DF2D840C2F20000B9E8A7
:102BF8005E005EC099E85E005EC04DF20450C2F20D
:102C080000005ECD5EC095E85E005EC04DF23050BB
:102C1800C2F20000B8E85E005EC098E85E005EC0E0
:102C280059AB00209DF8A2638AF8F7604DF2D86688
:102C38000ECBC2F2000631604DF200517260C2F252
:102C48000001059A0A604DF22C51C2F20001049A63
:102C58000A604DF25851C2F20001039A0A604EF21E
:102C68001002BDF8A053CEF20002079C8AF8F400C7
:102C7800CAF80000CCF80040AAF8F550B36090609C
:102C8800116841F0010111604DF288010122C2F280
:102C98000001C1E90020C1E9020008F019FC0DF2A9
:102CA8002C4DBDE8000FF0BD46F6102046F6F01298
:102CB800C0F60100C0F601022B210FF068FAFEDE13
:102CC80046F6F01046F60023C0F60100C0F60103F0
:102CD8001FE046F2346046F2BC62C0F60100C0F65E
:102CE800010227210FF053FAFEDE46F2CC6046F2CD
:102CF800E862C0F60100C0F601021C210FF047FA95
:102D0800FEDE46F6F01046F6D413C0F60100C0F613
:102D18000103009046F6A810C0F60100A7F12002B2
:102D28002B210FF01EFBFEDEF0B503AF4DF8048D2E
:102D380082B04C68002C51D00D6806464520012C05
:102D4800287054D00020032C68706BD93088052C6B
:102D580000F1140000BA4FEA1040688068D90020DA
:102D6800072CA8806AD94020082CE88048D0307BFE
:102D78009046717BB27B2A7206F0BEFB092C48D0C4
:102D880071680F2C687200915ED9684606F049FD9B
:102D980004295FD10068132CE860B06801905ED9FF
:102DA80001A806F03EFD04295FD10068286140466D
:102DB80006F0E7FE0021698160B128783C2101EA2C
:102DC80080018C4259D3284607F099FEC04300BAC7
:102DD800000C688102B05DF8048BF0BD46F6B8229D
:102DE8000020C0F6010200210FF00AFAFEDE46F6C6
:102DF80058320120C0F6010201210FF001FAFEDE6F
:102E080046F698320820C0F6010208210FF0F8F9BA
:102E1800FEDE46F6E8220920C0F6010209210FF07D
:102E2800EFF9FEDE46F628320420C0F6010229E05A
:102E380046F678320620C0F6010223E046F6A822BC
:102E48000820C0F601021DE046F6F8221020C0F660
:102E5800010217E046F60832C0F6010209E046F61C
:102E6800C8221420C0F601020CE046F6D822C0F6AB
:102E78000102042011F07EFAFEDE46F618320846FA
:102E8800C0F60102214611F02BFAFEDEF0B503AFC1
:102E98002DE900074D68002D61D00E680446307892
:102EA80000F0F000402818D1104606F064FED8B1B2
:102EB80030783C2101EA80018D425FD3304607F02B
:102EC8001EFE80B24FF6FF7188420DD00B20207392
:102ED80005202070BDE80007F0BD0B2020730820F6
:102EE8002070BDE80007F0BD072D41D9F0886FF0CC
:102EF800C001084206D00B20207307202070BDE8CF
:102F08000007F0BD71883C22307891FA81FA02EA14
:102F180080084FEA1A41B8EB1A4F34D88D423AD399
:102F28000F2D3ED906F10C00042106F06CFC132D80
:102F38003DD9814606F110000421C8EB1A4806F075
:102F480062FC0546707A06F01DFC2073307A6173C6
:102F5800C4E90089A560A073BDE80007F0BD46F686
:102F6800A8320020C0F6010200210FF049F9FEDE68
:102F780046F698220820C0F601021DE046F63832CF
:102F8800C0F601020BE046F688324046C0F6010260
:102F980011F0CBF9FEDE46F68832C0F6010208468B
:102FA8000AE046F668321020C0F6010204E046F650
:102FB80048321420C0F60102294611F091F9FEDECC
:102FC8007047F0B503AF2DE9000F83B00468914650
:102FD8008846064625780C2D24D24FF00C0B40204D
:102FE80084F800B008F088FAD6F804A09AF80060CF
:102FF8000C2E20D240208AF800B008F07DFA4DF25D
:10300800E860CDE90089C2F200000290684600F04D
:1030180037F80020A0EB0610C0B208F06DFA8AF865
:10302800006014E0746825780C2D1BD20C202070E9
:10303800402008F061FA4DF2E860CDF80490C2F241
:103048000000CDF800800290684600F019F80020D2
:10305800A0EB0510C0B208F04FFA257003B0BDE828
:10306800000FF0BD4DF2E860CDE90089C2F2000022
:103078000290684600F004F803B0BDE8000FF0BD08
:10308800F0B503AF2DE9000B86B0D0F808900246E2
:103098004DF24070C2F200000068D9F85010814229
:1030A80072D96821D9F84C3000FB01F69E5D022EDA
:1030B80071D000FB0130D2E90085183008F0E4F93E
:1030C800002874D00646406AF16A884258D0A92080
:1030D800FE210022052306F08CFB04AC01462046A5
:1030E80006F049FA6846214646F2DD3206F080FAD3
:1030F80002A8294642464FF4007309F02AFF9DF8BA
:10310800080060B9039AB2F5007F5CD8DDE90001D8
:1031180004ABCDE904013046414608F002F908F055
:10312800E2F9044608F0D2F908F0E9F94DF288010D
:10313800C2F20001D1E9000280F00100104304F05E
:1031480001000ED14EF21002CEF200021268D1E94F
:103158000245D20307D5013445F10005C1E902450E
:1031680001E000240025002808BF08F0B1F94FF459
:103178007A70A4FB002105FB0013484600F0BCFF51
:1031880006B0BDE8000BF0BD46F62412C0F60102F9
:103198000FF036F8FEDE46F6701046F69812C0F6C6
:1031A8000100C0F6010227210EF0F1FFFEDE46F60F
:1031B800341046F66012C0F60100C0F6010229215B
:1031C8000EF0E0FFFEDE46F620431046C0F601038F
:1031D8004FF400711A4611F083F8FEDEF0B503AF24
:1031E8002DE9000784B090E842010C6825780C2D81
:1031F80028D24FF00C0A402084F800A008F07CF98F
:10320800D6F8009099F800600C2E24D2402089F856
:1032180000A008F071F94DF24070C2F2000003906E
:103228004DF2E860C2F20000CDE9018001A800F08B
:103238003EF80020A0EB0610C0B208F05DF989F84E
:10324800006017E0346825780C2D1ED20C20207001
:10325800402008F051F94DF24070CDF80480C2F2D8
:10326800000003904DF2E860C2F20000029001A84D
:1032780000F01DF80020A0EB0510C0B208F03CF9E2
:10328800257004B0BDE80007F0BD4DF24070C2F2F1
:10329800000003904DF2E860C2F20000CDE9018021
:1032A80001A800F004F804B0BDE80007F0BDF0B5CF
:1032B80003AF2DE9000FE3B0D0E900B98068D0F87A
:1032C8000080D9F8480002F017FF08F00CF904460E
:1032D80008F0FCF808F013F94DF28802C2F2000277
:1032E800D2E9000180F00100084304F001000ED18A
:1032F8004EF21001CEF200010968D2E90246C90374
:1033080007D5013446F10006C2E9024601E000246F
:103318000026002808BF08F0DBF84FF47A70A4FBF9
:10332800002106FB0013484600F0E6FED9F85010CD
:10333800414540F2A1806820D9F84C1008FB00F202
:103348008A5C022A00F0CB8008FB0010183008F0D5
:103358009BF8002800F0CF808046C06878B303A8A7
:1033680041465A464FF40073CDF8049008F01CF813
:103378009DF81200022826D108F0B5F8044608F096
:10338800A5F808F0BCF84DF28802C2F20002D2E9B2
:10339800000180F00100084304F0010057D14EF20B
:1033A8001001CEF200010968D2E90245019EC90365
:1033B80050D5013445F10005C2E902454AE063B041
:1033C800BDE8000FF0BD06AC03AD0DF5887A601CB2
:1033D80002900AE0284641465A464FF4007307F027
:1033E800E3FF9DF812000228C6D0039AB2F5007FC9
:1033F8004AD82046594609F037FE9DF81890B9F189
:10340800080FE7D0029950467B2212F03EFF4DF29A
:1034180044735646C2F2000358681968BFF35F8FB9
:10342800421C02F00F0A8A4539D0C0EB40103146E1
:103438007B2203EB800080F808900930994612F04F
:1034480024FFBFF35F8FC9F804A0B246C2E7002487
:103458000025019E002808BF08F03AF84FF47A705A
:10346800A4FB002105FB0013304663B0BDE8000F44
:10347800BDE8F04000F040BE46F624124046C0F6D3
:1034880001020EF0BDFEFEDE46F600431046C0F611
:1034980001034FF400711A4610F022FFFEDE25AC3E
:1034A80044AD7B222046294612F025FD681C2146A2
:1034B8007B228DF8109112F0E8FE46F6104046F691
:1034C800E433C0F60100C0F60103009046F6B830B8
:1034D800C0F601002B212A460EF043FFFEDE46F619
:1034E800701046F69812C0F60100C0F601022721B6
:1034F8000EF04DFEFEDE46F6341046F66012C0F6BB
:103508000100C0F6010229210EF03CFEFEDEF0B5F6
:1035180003AF2DE9000B92B01C4615460E468046B7
:1035280002F0CEFE02F0E2FE02F0F6FE02F00BFF21
:1035380002F020FF02F035FF02F04AFF02F09FFE82
:10354800B8680DF1080911A932462B46CDE90040AB
:10355800484602F0FFFBD7F80CC008A90A46BCE8A9
:10356800780078C29CE8790079C2484602F07FFB6F
:1035780030B10020C8F8000012B0BDE8000BF0BD63
:1035880099E86F0088E86F0012B0BDE8000BF0BD45
:10359800F0B503AF2DE9000FEBB0D0E901160546F1
:1035A800326800203060002A00F0EF802CA80791D4
:1035B800FDF78DFA2C98002840F0F080D5E9031B20
:1035C800DBF800202D980C900020002ACBF8000092
:1035D80000F0ED802CA80691FDF7E6FB2C9800285A
:1035E80040F0EE80D5E9051300201A682D9C002ACA
:1035F800186000F0EE802CA8CDE90A36FDF71CFB18
:103608002C98002840F0F18009940895DDF8B490D2
:103618000C99B4F802E0B4F800C0EC694D880B8846
:103628002678B9F802A0B9F800800A2E059524D2A8
:103638000A20CDE903C320706020CDE901BE07F060
:103648005BFF4DF2D8600299C2F20000C180039975
:1036580081800499A0F80AA0A0F80880458001801C
:103668000020A0EB0610C0B207F046FFDDE903C357
:10367800DDE901BE0C9926700DE04DF2D860C2F26A
:103688000000A0F80AA0A0F80880A0F806E0A0F8BA
:1036980004C0458003800B98089C01600998CBF80A
:1036A80000000A982268C0F8009092F8F410106898
:1036B80039B109285CD800EB400002EB80007C306F
:1036C80006E00A2859D200EB400002EB80000430E3
:1036D8000599A0F80AA0A0F80880A0F806E0A0F8CC
:1036E80004C0418011680380481C1060092821D952
:1036F80092F8F400002111600DAD80F0010182F80C
:10370800F410002802F1040105F1010018BF02F1CC
:103718007C01782212F0B9FD07204CAE8DF83001FB
:10372800701C2946792212F0B0FD2CA831460222DD
:1037380001F0F6F946F21045C4F20205286840F097
:1037480001002860079802F03BFF286B40F0010059
:103758002863069803F04DF96069A96941F00101F1
:10376800A9616BB0BDE8000FBDE8F04003F03FBAB7
:1037780047F25C32C0F6010203E047F26C32C0F651
:1037880001020A210EF03CFDFEDE46F6844046F6B4
:10379800D042C0F60100C0F6010222E0DDE92D01A9
:1037A800CDE94C0146F65440C0F6010025E046F646
:1037B800844046F6C042C0F60100C0F6010210E09F
:1037C800DDE92D01CDE94C0146F66440C0F6010063
:1037D80013E046F6844046F6B042C0F60100C0F653
:1037E80001022B210EF0D3FCFEDEDDE92D01CDE92F
:1037F8004C0146F67440C0F6010046F6304300908E
:1038080046F6B8304CAAC0F60100C0F601032B21D9
:103818000EF0A7FDFEDEF0B503AF2DE9000FA3B053
:103828000DF1640A0E46814611465046904604F052
:10383800D5FC0AADD9E90C235146284605F003FF0B
:103848009DF82840022C05D19DF8290023B0BDE839
:10385800000FF0BD0DF1140BA91C0BF10200122290
:1038680004969DF8296012F010FD13AD59468DF8A5
:10387800156028468DF8144005F0C5FE15AE59466A
:10388800304605F0D0FEDDF84D00039030469DF837
:103898004C4005F064FE20B14FF6FF704FF0FF3149
:1038A8002BE015A805F04DFE00285AD015A805F004
:1038B8003DFE9DF85420002A00F0F5800229C0F052
:1038C800D880022900F0DD80032940F2E3804178A6
:1038D8000122408801F07F01ADF868005E208DF874
:1038E80067108DF866000AA819A9ADF864200622A9
:1038F80005F081FDBDF82C000A9909F1200310910B
:10390800ADF844000DF1280C0FCB8CE80F00584699
:1039180005F023FF00F10E0110A81B900AF10C001E
:10392800CDF84C901591CDE919659BE87C007CC0D9
:103938000AA85246049E219006F10C04CDF888800E
:103948002046FEF7A6FA05462046314602F088F9D9
:10395800E9B2B1F10C0018BF084623B0BDE8000F6A
:10396800F0BDD9E9000115AACDE9000119A8494619
:1039780005F010F89DF86400022805D19DF865004F
:1039880023B0BDE8000FF0BD8DF84000D9F8100055
:10399800BDF866109DF8652000289DF86830ADF8E0
:1039A80042108DF844308DF8412000F08880D9E924
:1039B800000209F10801CDE9000219A810AA029134
:1039C80007F00EFC9DF86400B0B102280FD0002C5F
:1039D8001CBF9DF840005FEAC07012D1D9F81000F2
:1039E800002875D0D9E90023029807F071FC02205D
:1039F80023B0BDE8000FF0BDBDF86900DDF8651023
:103A08007BE799F8400078B319AC4FF0FF31DDF847
:103A180041000023039ACDF86E20D9F841201E906A
:103A28002046CDF87210ADF87610B9F84510ADF80B
:103A38006430ADF86C101A9207F027FD0E3018901C
:103A480000900AA8019017A9D9E9002304980B91BE
:103A580018A9CDF85C900C940A91FDF7F4FFC0B258
:103A68000B287FF4F3AEB9E7082023B0BDE8000FB8
:103A7800F0BD46F660620120C0F601020EF0C0FB00
:103A8800FEDE46F670620220C0F6010202210EF048
:103A9800B7FBFEDE46F680620320C0F60102032172
:103AA8000EF0AEFBFEDE46F6CC5046F69062C0F64F
:103AB8000100C0F6010228210EF069FBFEDE46F681
:103AC800046046F6B062C0F60100C0F6010207E0E5
:103AD80046F6046046F6A062C0F60100C0F6010290
:103AE8002B210EF054FBFEDEF0B503AF2DE9000FDD
:103AF800B5B05C6882460E2C08D20420CAF80000D3
:103B08008AF8040035B0BDE8000FF0BD1D682AAE84
:103B180090468B4630460622294605F06CFC304616
:103B280005F084FC00BB0CAE29460622304605F0A1
:103B380062FC304605F085FCB0B90CA8294606227F
:103B480005F059FC9BF84000C00700F09082BDF8D2
:103B580034000C99DBF84130BBF8452080B259405D
:103B68005040084340F0C580A88900BA000C05F011
:103B78006CFC80B228B3012834D1A4F10E000828C7
:103B8800BBD3A97CEA7C1144043149008142B4D8F2
:103B980005F10E01CDE92A100CA82AA9DBE9006479
:103BA80001F06DFDBDF83000032833D19DF83200D7
:103BB8000421CAF800108AF8040035B0BDE8000FE7
:103BC800F0BDA4F10E01042014294FF0040219D30A
:103BD80005F10E023C26137806EA830399420BD2BC
:103BE80004220FE00420CAF8000006208AF8040026
:103BF80035B0BDE8000FF0BD2E8A36BAB3EB164FCC
:103C08007ED90822CAF800008AF8042035B0BDE839
:103C1800000FF0BD09900D981199269021901CA8CD
:103C2800BDF83820DDF83A30CDE90764ADF89C20BE
:103C3800ADF888200A93069105F09DFCDBF8340066
:103C4800002856D0DBF8305000EB8008DDF8719082
:103C58000CAE9DF8704003E00535B8F1050848D072
:103C68003046294605F0BEFC9DF83000A042F3D14D
:103C7800002C1CBFDDF831004845EDD1099C022C11
:103C88005DD00AA805F0CFFD002858D021A805F07E
:103C9800C8FB002853D00A980CA9CDF831000120A0
:103CA8008DF83000584604F02CFE002847D0DBF889
:103CB8001000002800F0FF8118AD0A99284605F089
:103CC8005AFCBDF888101CAE2198ADF834100CA928
:103CD8000C90304605F05EFF079829460090324662
:103CE800089801900BF1080007F0DEF8002C00F0AE
:103CF80054810320CAF8000035B0BDE8000FF0BDBC
:103D0800330C9942FFF46CAF0DF1A809CDE90A21F3
:103D18000BF12C020AA94846FFF7B8F89DF8B44001
:103D28009DF8A8000B2C0CD14FF0030E8DF8340031
:103D3800CDF830E0BEF1030F00F0248170E10820D7
:103D480022E1DDF8A910DDF8AD202C9BCDF8652027
:103D5800CDF861101A931999BDF8B5609DF8B75060
:103D68008DF860005846ADF86D608DF86F50089476
:103D78008DF86C4004F086FB00286ED018AEDDE9A3
:103D88000A5100294DCECDF87F60CDF87B30CDF8B3
:103D98007720CDF8730000F06181032940F2738128
:103DA80028783C2202EA80006A8812BA130CB0EB29
:103DB800124F00F270819942CDE904050693C0F0D4
:103DC80072811A9921A8079105F0D5FBDBF8340018
:103DD80000284ED0DBF8309000EB80069DF8845028
:103DE8002AACDDF88510099103E009F10509053EC3
:103DF8003FD02046494605F0F5FB9DF8A800A842AB
:103E0800F3D1002D1EBFDDF8A90009998842ECD135
:103E180006980499A0EB0109059844180898012808
:103E280064D004287AD101202AAD8DF8A800681C36
:103E38001CA9132212F029FA002059468DE8110214
:103E48000CA842462B46A94604F00DFCDDF830E0EC
:103E5800BEF1030F00F09680E2E04FF0030E082158
:103E6800CDF830E08DF83410BEF1030F00F08A80F1
:103E7800D6E0079C2AA8214605F07DFB5846214636
:103E880004F0F7FA0028C3D19BF847000DF1A80900
:103E9800002800F0BE8018A8083005F0C4FC0028EF
:103EA80000F0B7801A98DBE90012CDF885000120F0
:103EB800CDE900120BF138018DF8840026A821AA5B
:103EC80005F0BFFD9DF89840022C00F0A280DBF8B9
:103ED8003400002800F09B80DBF8305000EB8006AF
:103EE8000DF1A809DDF8991009917DE001202AADAE
:103EF8008DF8A800681C1CA9132212F0C6F90CA89A
:103F0800594642462B46CDE90049A94604F0D4FA61
:103F1800DDF830E0BEF1030F34D081E018A805F0D9
:103F2800BAFC024648464FF4107104F0D5F98046B1
:103F3800484500F2CC8018AB0DF1980C0DF1A8099A
:103F48000FCBCDF885008CE80F0040F20220CDF8A9
:103F5800891021A9ADF8A80009F10300CDF88D203A
:103F68001122CDF8913012F090F90CA826AA5946E2
:103F78004B46CDE92F4804F0F6FADDF830E0BEF103
:103F8800030F4DD19DF834008AF804000420CAF8C4
:103F9800000035B0BDE8000FF0BD9BF840000028D8
:103FA80000F09E80BDF88800AAF8160006980A99C5
:103FB800219ACAF80E000120CAF812200222CAF873
:103FC8001810AAF80400DBF84100BBF84510CAF83D
:103FD8000020AAF80C10CAF8080035B0BDE8000F98
:103FE800F0BD0535053E12D04846294605F0FAFAD7
:103FF8009DF8A800A042F4D1002C1EBFDDF8A9004E
:1040080009998842EDD19DF86C00089000E70DF100
:10401800A8094FF0020ECDF830E0BEF1030FB1D081
:10402800BEF1020F02D14FF0030E09E00CA94A4677
:1040380001F1040CBCE87A007AC29CE87B007BC2E0
:104048004AF804EBB9E84F00AAE84F0099E86F0076
:104058008AE86F0035B0BDE8000FF0BD46F64C5257
:104068000020C0F6010200210EF0CAF8FEDE46F676
:10407800046046F65062C0F60100C0F601022B212A
:104088000EF085F8FEDE46F63C520420C0F601022A
:1040980010F026F9FEDE46F65C521946C0F601021B
:1040A80010F043F9FEDE069846F65C52C0F60102AF
:1040B80010F016F9FEDE46F6046046F63062C0F6E9
:1040C8000100C0F601022B210EF061F8FEDE46F673
:1040D80040624046C0F60102494610F001F9FEDE92
:1040E80046F6CC5046F6F452C0F60100C0F601027E
:1040F80028210EF04CF8FEDEF0B503AF2DE9000FD5
:10410800B3B0814620A800F10E0B0430069012A827
:104118000430079009F14C0009F148040A90002086
:10412800C9E90023CDE90849CDF80CB014E002290B
:1041380000F0E680002940F0FE800498002818BFAF
:1041480001200599DDF80CB00843DDE90849C007EE
:104158004FF0010000F0E78002900BA8214601F023
:10416800F9FF0B98002509E00125DDE90E0102F0B1
:1041780063F80BA8214601F0EDFF0B98002850D0FA
:10418800DDE90C18CDE90E010EA802F041F80A9AF3
:1041980010ABCDE9100112A84946FFF7A5FC12980B
:1041A8000428E2D00328DFD0022829D107990DF18D
:1041B800800AD44691E87D008CE87D00BBF80400B5
:1041C800DBF80010ADF87C0050461E9107F05DF951
:1041D80000F10E011EA830902CA808F10C052F90B4
:1041E8002DA82EAA2E902846CDF8B0902D91CDF866
:1041F800C4A0FDF7B5FD2846414601F031FD0DE0AC
:104208002090DDE9061CBCE87C007CC19CE87D00B0
:104218007DC120AA48464146FFF7FDFA0125089CC2
:10422800A3E712A8214604950E9401F07CFF0A9892
:1042380003F061FF064688460020059003E0012050
:1042480005900BF1680646453FF477AFB34616F87C
:10425800680B0228F7D0C0B10998DBF80110DBE938
:10426800024A9BF80520209120A9D0E900958DF8F5
:10427800842004F0E1FB28B9B9EB040075EB0A00CF
:10428800E1DB02E000208BF8000002200BF138058A
:104298008DF82C000B208DF8B40020AE09980BF196
:1042A80048041090DBE91601CDE92E019BF8600067
:1042B8009BF86110002808BF40218DF87810284627
:1042C8003146209401F03DFC10A826902DA8259099
:1042D8000EA824900BA823901EA822902EA8314641
:1042E800CDE92040284601F00DFB9DF8B4100B29BC
:1042F8007FF41DAFC1B20029A3D00B299FD01AE0CB
:104308009DF82C0002281BD009998DF8800020A860
:10431800D1E90023DDF82D1000905846CDF8811022
:1043280005F00FFC09E7029800F00101002033B006
:10433800BDE8000FF0BD012033B0BDE8000FF0BDAF
:1043480046F6C06046F6D862C0F60100C0F6010223
:1043580016210DF017FFFEDEF0B503AF2DE9000FB3
:104368008BB001F11806044605A80D46314601F048
:10437800DAFE95F83400C0074AD0D5F808B0BBF18A
:10438800000F51D0D5E90010CDE90210E86804907B
:10439800B5F83900D5F83510ADF8280004F120003B
:1043A8000991314601F0BFFED5E9040106F0F7FA9C
:1043B800D5E9069205F1280EE1614FF00008019257
:1043C800029AA260039AC4E9032B049AC4E905205F
:1043D8000122BDF828000999A4F845000198D5E9FB
:1043E80008A39EE8405084F8402095F83B20C4F884
:1043F800411004F13001C4E90088C4E9129326652C
:1044080081E8015484F847200BB0BDE8000FF0BDE7
:1044180046F6E86046F64C72C0F60100C0F60102A6
:1044280029210DF0AFFEFEDE46F6117046F63C720D
:10443800C0F60100C0F601022A210DF0A3FEFEDE3F
:1044480080B56F4690ED181A90F8801031EE000A8A
:1044580080ED180ADFE801F0031232576E9490F8E5
:104468006420002A00F0888090F88120002A18BF74
:10447800012900F08180002101224FE0B5EE001AE9
:10448800B4EE410AF1EE10FA76DD022974D0182153
:104498004FF48052C4F202010A604FF400620A60CD
:1044A80040F20041C4F2202101220A602C22C4F209
:1044B800010200211268016602211EE0B5EE001A11
:1044C800B4EE410AF1EE10FA56DD032954D0182152
:1044D8004FF48052C4F202010A604FF400620A608D
:1044E80040F20041C4F2202101220A602C22C4F2C9
:1044F8000102002112680166032180F88010511C16
:10450800C1F38D0130E0B7EE001AB4EE410AF1EEC6
:1045180010FA31DD04292FD000210422016680F829
:1045280080201822C4F202024FF0805313604FF427
:10453800006313E0B6EE001AB4EE410AF1EE10FA89
:104548001ADDC9B118220021C4F202024FF08053CB
:10455800016680F8801013604FF00063136040F22A
:104568000042C4F2202211602C22C4F201029160A0
:10457800002180F8641080BD002180F8641080BD9F
:1045880046F65C7046F68872C0F60100C0F6010275
:1045980013210DF0FCFDFEDE80B56F4690F88030EB
:1045A800D1B28B4208BF80BD002280F8801002661D
:1045B8002C20C4F20100DFE801F021030C0C0332C7
:1045C80018214FF08052C4F202010A604FF40062D1
:1045D8001CE018214FF48052C4F202010A604FF423
:1045E80000620A6040F20041C4F2202101220A6000
:1045F80001680131C1F38D01816080BD18214FF040
:104608008052C4F202010A604FF000620A6040F270
:104618000042C4F2202200211160816080BD46F66C
:104628005C7046F69872C0F60100C0F601021321CC
:104638000DF0ADFDFEDE084646F6A871C0F6010194
:1046480002220EF0CEBF704780B56F4606F04EFFCF
:10465800FCE7F0B503AF2DE9000B06F044FF044674
:1046680006F034FF06F04BFF4DF2680804F0010035
:10467800C2F20008D8F81050D8F81460BFF35F8F62
:10468800B5420BD008F110010122294491F8089095
:1046980022EA0501BFF35F8FC8F81010002808BF91
:1046A80006F016FFB5421ED006F01DFF044606F0C0
:1046B8000DFF06F024FFD8F8080008EB000181F888
:1046C8000C90012121EA0000BFF35F8FC8F80800B1
:1046D800E00708BF06F0FCFE4EF200204FF48071A0
:1046E800CEF200000160A81BB0FA80F04009BDE8D6
:1046F800000BF0BDF0B503AF2DE9000706F0F3FE9F
:10470800044606F0E3FE06F0FAFE4DF2680848F6A5
:104718003969C2F2000804F00100D8F85850C3F60D
:10472800E309D8F85C60BFF35F8FB5420FD0691C0E
:10473800A1FB092308F158022A4492F808A0BFF304
:104748005F8F5A0802EBC202891AC8F8581000286D
:1047580008BF06F0BDFEB54220D006F0C4FE0446F0
:1047680006F0B4FE06F0CBFED8F83400411C4044F5
:10477800A1FB092380F838A0BFF35F8F580800EB2E
:10478800C000081AC8F83400E00708BF06F0A0FE09
:104798004EF200208021CEF200000160A81BB0FA82
:1047A80080F04009BDE80007F0BDF0B503AF2DE982
:1047B800000F83B08846814606F095FE064606F04F
:1047C80085FE06F09CFE4DF2680BC2F2000BDBE999
:1047D800080180F00100084306F001000ED14EF2F6
:1047E8001001CEF200010968DBE90A54C90307D5B4
:1047F800013544F10004CBE90A5401E00025002406
:10480800002808BF06F064FE06F06DFE064606F0B6
:104818005DFE06F074FE19EB0509DBF8585048EB0D
:104828000408DBF85C4006F00100BFF35F8FA54287
:1048380012D048F63962691CC3F6E302A1FB0223D1
:104848000BF158022A44167ABFF35F8F5A0802EB1D
:10485800C202891ACBF85810002808BF06F038FEA3
:10486800A54205D10120314603B0BDE8000FF0BDD7
:1048780006F039FE054606F029FE06F040FE40F235
:10488800000ADBF80000C2F2000A0290BAF8981198
:104898000130DBE908234FF6FF7CCBF80000B1EBD1
:1048A8000C0001EB410418BF0AEBC4001A4305F0E1
:1048B800010501954BD061450FD0D0E9000188EA88
:1048C800010289EA0003B9EB000042EA030268EB3F
:1048D80001004AB1B0F1FF3F06DC4EF604504FF03C
:1048E8008061CEF200000160BAF89A2101210AF530
:1048F800CC7502EB42004AF830900AEBC000C0F8D1
:10490800048081460673029EBAF89841417339F8CB
:10491800101F64458660AAF89A114BD004EB440135
:10492800D0E9006800925AF831000AEBC1014968E1
:1049380080EA060281EA08031A4356D14FF0000BB9
:1049480009F060F9C0B2834500F08580D8E0614580
:104958000FD0D0E9000188EA010289EA0003B9EB27
:10496800000042EA030268EB01004AB1B0F1FF3FE0
:1049780006DC4EF604504FF08061CEF20000016074
:10498800BAF89A2101210AF5CC7502EB42004AF8DF
:1049980030900AEBC000C0F8048081460673029E7E
:1049A800BAF89841417339F8101F64458660AAF82F
:1049B8009A1103D14FF6FF740198A4E004EB440167
:1049C800D0E9008B00925AF831000AEBC10149681E
:1049D80080EA080281EA0B031A431AD1002609F07B
:1049E80011F9C0B2864266D08AE0801B71EB0801DB
:1049F80022D46FF00042514061EA000BBBF1000F76
:104A080018BF4FF0010B09F0FDF8C0B2834522D062
:104A180076E0B0EB080071EB0B013FD46FF0004279
:104A2800514061EA0006002E18BF012609F0EAF895
:104A3800C0B286423FD063E04FF0FF0B09F0E2F8C6
:104A4800C0B2834507D05BE04FF0000B09F0DAF8FD
:104A5800C0B2834554D104EB44000AEBC0054FF6BD
:104A6800FF7035F8104F844248D004EB44015AF8DF
:104A780031000AEBC101496880EA060281EA0803AD
:104A88001A43E1D0801B71EB0801B2D54FF0FF0B40
:104A980009F0B8F8C0B28345DDD031E0FF2609F04F
:104AA800B1F8C0B2864206D02AE0002609F0AAF87A
:104AB800C0B2864224D104EB44000AEBC0054FF68D
:104AC800FF7035F8104F844218D004EB44015AF8AF
:104AD80031000AEBC101496880EA080281EA0B0348
:104AE8001A43E2D0B0EB080071EB0B0196D5FF2614
:104AF80009F088F8C0B28642DDD001E04FF6FF74B5
:104B0800029EDDE900200028A9F800402A8008BF9D
:104B180006F0DEFC0020314603B0BDE8000FF0BD12
:104B2800F0B503AF2DE9000F81B099460092884691
:104B3800044606F0D8FC064606F0C8FC06F0DFFC82
:104B480040F6105106F00100C2F20001D1F800A0B1
:104B5800D1F804B0BFF35F8FDA4511D048F6396356
:104B68000AF10102C3F6E303A2FB033601EB0A03D1
:104B78001D7ABFF35F8F730803EBC303D21A0A6071
:104B8800002808BF06F0A4FCDA450DD120464146AE
:104B98007C2211F0B0F9009884F87D9084F87C00AC
:104BA80001B0BDE8000FF0BD4DF2D801E8B2C2F285
:104BB800000101EBC01641467C22304611F09BF9FA
:104BC800009886F87D9086F87C0006F08CFC80467C
:104BD80006F07CFC06F093FC4DF2680048F6396359
:104BE800C2F20000C3F6E303816C4A1C0144A2FB35
:104BF800033681F84C50BFF35F8F710801EBC10198
:104C0800511A81645FEAC87008BF06F061FC03208E
:104C1800402184F87C004EF20020CEF200000160B2
:104C280001B0BDE8000FF0BDD0B502AF8CB006F002
:104C38005FFC0446A7F109000A90CDE908004DF28F
:104C48005850C2F2000007904DF23050C2F20000F6
:104C580006904DF22C50C2F2000005904DF204501F
:104C6800C2F2000004904DF20050C2F2000003901E
:104C78004DF2D840C2F2000002904DF25C50C2F2F0
:104C8800000001900A2007F8090C01A8FEF780FC33
:104C9800204606F031FC0CB0D0BDD0B502AF88B0CC
:104CA80006F026FC04460C2007F8210CA7F1210089
:104CB8000490CDE9020040F61010C2F200000790FF
:104CC80002A800F108010430059005A80691FEF736
:104CD80085FA204606F010FC08B0D0BDF0B503AF49
:104CE8002DE9000F85B04DF2680AC2F2000ADAF821
:104CF8000400DAF80810BFF35F8F884207D100205C
:104D080005B0BDE8000FBDE8F04006F0F5BB40F285
:104D1800000BC2F2000B21E04DF2680A2846C2F2ED
:104D2800000A029B188001982080039810F0010067
:104D380008BF06F0CDFB41F21401C4F20201086875
:104D480080064FF4001058BF20204860DAF80400AD
:104D5800DAF80810BFF35F8F8842D0D00AF1040157
:104D68000123014423EA0000097ABFF35F8FCAF8E0
:104D78000400DAF814000AEB000223EA00001176B6
:104D8800BFF35F8FCAF8140006F0ADFB044606F0C7
:104D98009DFB06F0B4FBDAE9080180F00100084346
:104DA8000ED14EF21000CEF200000068DAE90A5681
:104DB800C00307D5013546F10006CAE90A5601E0E5
:104DC8000025002614F0010008BF06F081FB06F05C
:104DD8008AFB044606F07AFB06F091FB15F57A7912
:104DE800DAF8105046F10008DAF81460BFF35F8F64
:104DF800B5420AD00AF110002844007A0290012036
:104E0800A843BFF35F8FCAF8100014F0010008BF71
:104E180006F05EFBB54200F0608106F064FB03908B
:104E280006F054FB06F06BFBDAF800004FF6FF7C47
:104E3800BBF89821411CDAE90836CAF80010B2EB31
:104E48000C0102EB420518BF0BEBC50133434ED0F2
:104E580062450FD0D1E9001288EA020389EA010607
:104E6800B9EB010143EA060368EB02014BB1B1F16A
:104E7800FF3F06DC4EF604514FF08062CEF200018F
:104E88000A60BBF89A11002201910BF5CC7401EB72
:104E980041014BF831900BEBC101C1E901800B4690
:104EA8004A734FF6FF70029ABBF898510A7333F8A9
:104EB800102F6545ABF89A213FF434AFD1E900983B
:104EC80005EB450102935BF831000BEBC101496822
:104ED80080EA090281EA08031A4355D14FF0000A13
:104EE80008F090FEC0B282457FF416AF7DE06245BF
:104EF8000FD0D1E9001288EA020389EA0106B9EB6A
:104F0800010143EA060368EB02014BB1B1F1FF3F2F
:104F180006DC4EF604514FF08062CEF200010A60C2
:104F2800BBF89A11002201910BF5CC7601EB4101F7
:104F38004BF831900BEBC101C1E901800B464A7374
:104F48004FF6FF70029ABBF898410A7333F8102F96
:104F58006445ABF89A2100F0BC80D1E9009804EBD5
:104F6800440102935BF831000BEBC101496880EA08
:104F7800090281EA08031A431CD1002508F042FE01
:104F8800C0B2854270D09FE0B0EB090071EB080118
:104F980023D46FF00042514061EA000ABAF1000FD1
:104FA80018BF4FF0010A08F02DFEC0B282457FF409
:104FB800B3AE1AE0B0EB090071EB08014ED46FF004
:104FC8000042514061EA0005002D18BF012508F094
:104FD80019FEC0B2854247D076E04FF0FF0A08F0CC
:104FE80011FEC0B282457FF497AE4DF2680A4FF6C3
:104FF800FF71C2F2000A07E0002608F003FEC0B203
:1050080086424FF6FF7127D105EB45000BEBC00434
:1050180034F8105F8D421CD005EB45015BF8310078
:105028000BEBC101496880EA090281EA08031A43C7
:10503800E2D0B0EB090071EB080108D46FF0004230
:10504800514061EA0006002E18BF0126D5E7FF2669
:10505800D3E74FF6FF7064E6284662E6FF2508F0BE
:10506800D1FDC0B285422FD14FF6FF7107E0002570
:1050780008F0C8FDC0B285424FF6FF7124D104EB99
:1050880044000BEBC00636F8104F8C421ED004EBE0
:1050980044015BF831000BEBC101496880EA090261
:1050A80081EA08031A43E2D0B0EB090071EB08016A
:1050B80008D46FF00042514061EA0005002D18BF86
:1050C8000125D5E7FF25D3E7204601E04FF6FF701D
:1050D800029B18800198308027E646F6F47046F661
:1050E800D873C0F6010004AA009046F6AA70C0F66C
:1050F8000100C0F601032B210DF033F9FEDEF0B5F7
:1051080003AF2DE9000F87B006F0F2F94DF26806FB
:105118000190C2F20006306B716BBFF35F8F88425B
:105128003BD048F639694DF2D80B4DF25468A7F1D7
:105138002D050DF10C0AC3F6E309C2F2000BC2F209
:105148000008411CA1FB092306F130021044007A33
:10515800BFF35F8F5A0802EBC202891A3163F16DFF
:105168004A1C3144A2FB093481F86000BFF35F8F09
:10517800600800EBC000101AF0650720CDE905555E
:1051880007F82D0C5046CDE9038BFCF79DFA306BE0
:10519800716BBFF35F8F8842D3D1019806F0ACF9E9
:1051A80007B0BDE8000FF0BDF0B503AF2DE9000F63
:1051B800C3B006F09DF94DF268040190C2F20004F4
:1051C800606CA16CBFF35F8F88424CD048F6396B96
:1051D80040F6105802AD22AEA7F1A109C3F6E30BC1
:1051E800C2F20008411CA1FB0B2304F14402104445
:1051F8007C2290F808A0BFF35F8F580800EBC0002E
:10520800081A60644DF2D800C2F2000000EBCA111F
:10521800284610F070FED8F80400411C4044A1FB59
:105228000B2380F808A0BFF35F8F7C22580800EB9F
:10523800C000081AC8F804000C20294607F8A10C79
:10524800304610F058FE40F6103141A8C2F2000175
:105258003246CDE94199FDF7B4FE606CA16CBFF30D
:105268005F8F8842BED1019806F046F943B0BDE889
:10527800000FF0BDF0B503AF2DE9000F81B04EF27D
:10528800100940F200064DF2680BCEF20009C2F296
:105298000006C2F2000B4FF0010A03E00AFA04F01C
:1052A800C9F8F00106F01FF9804606F00FF906F07C
:1052B80026F9B6F898014FF6FF7188425AD000EBEC
:1052C8004001CA4656F831C006EBC101D1F804E0E6
:1052D800D9F80020DBE90A65D20304D5013645F187
:1052E8000005CBE90A658CEA06028EEA050442EA63
:1052F8000403BCEB06046EEB050243B3B4F1FF33C1
:105308006FF0004372EB030321D2DAF80030DB03BD
:1053180008D5013645F10005BCEB06046EEB050225
:10532800CBE90A656FF001031B1B6FF0004373EBB9
:1053380002020CD38CEA06028EEA05031A4306D051
:1053480040F200060324D146C2F200060FE040F204
:1053580000060B8AC2F2000691F80CB0B6F89A2142
:10536800D1464C7BA6F89A01A6F898310A824FF0EC
:10537800010A00E0032418F0010008BF06F0A8F8AD
:10538800DFE804F02702426806F0ADF8044606F0AC
:105398009DF806F0B4F84DF2680548F63962C2F295
:1053A8000005C3F6E302686B411C2844A1FB0223F5
:1053B80080F838B0BFF35F8FAB46580800EBC000E9
:1053C800081A6863E0074FF0070408BF06F080F882
:1053D80064E706F088F8044606F078F806F08FF8D7
:1053E8004DF26802C2F20002906811182AEA000021
:1053F80081F80CB09346BFF35F8F9060E0074FF0E1
:1054080008047FF44BAF22E006F06DF8044606F07E
:105418005DF806F074F84DF2680548F63962C2F294
:105428000005C3F6E302A86C411C2844A1FB022333
:1054380080F84CB0AB46BFF35F8F580800EBC00054
:10544800081AA864E0074FF006047FF427AF06F0B7
:105458003FF823E706F047F8044606F037F806F069
:105468004EF84DF26803C2F20003D3E9080180F058
:105478000102084342EA010204F0010118BF03F1E6
:10548800280052B9D9F80020D20306D5D0E9002364
:10549800013243F10003C0E9002331B901B0BDE88E
:1054A800000FBDE8F04006F013B801B0BDE8000FEA
:1054B800F0BDF0B503AF4DF8048D86B00289D1E98F
:1054C8000054012CB0F8028006884368ADF8042027
:1054D800D0F80A2000930292428AD0F80E30406930
:1054E800ADF810200393059040F28480002005F069
:1054F800D4FF00BA032C4FEA1040288040F2808085
:10550800002003F0B7FF00BA042C4FEA104068806F
:105518005ED00620052C287163D90420072C6871F9
:1055280074D93046414605F0C7FF00BA000CE88040
:10553800684603F074FF034628790E4600F1080117
:10554800A14269D886426CD105F108001946324655
:1055580010F09BFE02A804F064F90E462979034670
:10556800687901F108021118A1425FD8864262D118
:10557800A8181946324610F088FE03A803F04FFF1A
:1055880003460E4628796979014401F10802111889
:10559800A14255D8864259D1A8181946324610F06A
:1055A80074FE05A804F03DF9034628796A7902EBF0
:1055B800400000F10806B018A0424FD8914255D1DA
:1055C800A819194610F061FE06B05DF8048BF0BD0D
:1055D80047F280120420C0F6010204210CF010FEEC
:1055E800FEDE47F290120520C0F6010221460CF0BB
:1055F80007FEFEDE47F290020220C0F6010231E00B
:1056080047F2A0020420C0F601022BE047F2800214
:105618000820C0F6010225E047F2F002C0F60102B8
:1056280012E047F20012C0F6010213E047F210122E
:10563800C0F6010208E047F22012C0F6010209E0B4
:1056480047F23012C0F6010208460BE047F240125A
:10565800C0F6010231460EF08DFEFEDE47F2501212
:10566800C0F6010221460EF03BFEFEDE47F2601353
:105678001046C0F601031A460EF07CFEFEDEF0B5B9
:1056880003AF2DE9000784B04C68012C40F28A80F2
:105698000D688246288800BA000C05F0F8FE032C35
:1056A80040F289800646688800BA000C03F0CDFEF7
:1056B800042C65D0052C6CD0310404D1000404BF3F
:1056C8002879062809D00320AAF8000006208AF8BD
:1056D800020004B0BDE80007F0BD68790428F2D1E3
:1056E800072C71D9E88800BA000C05F0DBFE2A798E
:1056F800804602F10800A0426FD8894605F10801EA
:10570800684603F078FE2879697900F10802501894
:10571800A0426AD8A81804F076F806462A7968796B
:10572800104400F108018818A04266D8294402A84C
:1057380003F061FE2879697901EB400000F1080265
:105748005018A04261D8A81804F05DF8BDF80410FC
:10575800029ABDF80C30009DCAF80450AAF8081047
:10576800CAF80E20AAF81230CAF81400CAF80A605B
:10577800AAF80290AAF8008004B0BDE80007F0BDBE
:1057880047F2A0120420C0F6010204210CF038FDF3
:10579800FEDE47F2B0120520C0F6010205210CF02A
:1057A8002FFDFEDE47F260020220C0F6010221460C
:1057B8000EF096FDFEDE47F270020420C0F60102EC
:1057C80021460EF08DFDFEDE47F270120820C0F66D
:1057D800010221460EF084FDFEDE47F2B002C0F65B
:1057E800010221460EF07CFDFEDE47F2C002C0F643
:1057F800010221460EF074FDFEDE47F2D002C0F62B
:10580800010221460EF06CFDFEDE47F2E002C0F612
:10581800010221460EF064FDFEDE006802F0C8BBFE
:10582800F0B503AF4DF8048D82B040F280464FF0DA
:105838000108C4F247260D460446C6F8008405F060
:105848004FFE0020C6F800803060284601F05CFA60
:1058580000210D23C4F20101002C8A6963F3C602FA
:105868008A610A6842F080020A603FD0B0FBF4F215
:10587800531E1E0C08EB1343B2FBF3F28E62931E09
:105888004FF6FF76B3423FBF013ACA620A6842F058
:1058980004023FBF0A6001224A610A683FBF22F042
:1058A80004020A604A6C42F480423FBF4A640A68B4
:1058B80042F001020A603EBF02B05DF8048BF0BD01
:1058C800012046F2146307F8110C46F22460C0F672
:1058D8000100A7F11102009046F2E950C0F601005C
:1058E800C0F601032B210CF03CFDFEDE46F2D05041
:1058F80046F2C052C0F60100C0F6010219210CF0B0
:1059080046FCFEDEF0B503AF2DE9000FA7B0D0F8D6
:105918000CE0BEF1000F00F0B380D0F804C0BCF179
:10592800000F00F0D280D0F80880E04580F0D980E0
:10593800D1F800A0DAE9019BDAF80C40A9EB0B06D4
:10594800B44238BF264616EB0B0380F0D3804B4594
:1059580000F2D980036808EB480203EB82031A4679
:105968009B7952F8045B09959D1E18BF1546022BBA
:1059780000F0D28003900998CDE90794B0428DE8F1
:10598800005100F2D58001F104090A69059299E8ED
:1059980041024A698C69DAF8001004922A88CDF825
:1059A80018B08B440188ADF82A20ADF82810817909
:1059B800D0F802000B900AA88DF8301003F040FCD4
:1059C80031784FF000089DF830300B9E2468CDF8F0
:1059D80039608DF838808DF83D30AB79D5F80250B4
:1059E8008DF845100999CDF83E501BAD08440A9A28
:1059F800CDE914B10DF1340B129001201392042259
:105A08000D90284659468DF843208DF8423002F013
:105A1800E5FB19A8294603F006FE1998C9F8000005
:105A280005989DF8681089F80410006800F0EDFBEF
:105A380058B3AE4620462A46BBE87812AEE878123C
:105A48009BE878128EE87812FDF7E5FE0499C0B25B
:105A58000B280870099908BF8846DDE9076306998D
:105A6800DEB14144B1FBF6F202FB1611A3EB0802CA
:105A78000B28CAE9021217D027B0BDE8000FF0BD05
:105A8800002027B0BDE8000FF0BD4FF0000800204F
:105A9800DDE907630699002EE3D10021A3EB080294
:105AA8000B28CAE90212E7D10098019A0130B0FB2D
:105AB800F2F101FB12000299039A0139C2E90201CD
:105AC8000B2027B0BDE8000FF0BD47F2502047F289
