:020000040800F2
:1000000000000220A9010008BB750008A1C100087A
:10001000BB750008BB750008BB7500080000000038
:10002000000000000000000000000000BB75000898
:10003000BB75000800000000BB75000833490008CC
:10004000BB750008BB750008BB750008BB750008D0
:1000500000000000BB75000823410008BB750008C4
:10006000BB750008BB750008BB750008BB750008B0
:10007000BB750008BB750008BB750008BB750008A0
:10008000BB750008BB750008BB750008BB75000890
:10009000BB750008BB750008BB750008BB75000880
:1000A000BB750008BB750008BB750008BB75000870
:1000B000BB750008BB750008BB750008BB75000860
:1000C000BB750008BB750008BB750008BB75000850
:1000D000BB750008BB750008BB750008BB75000840
:1000E000BB750008BB750008BB750008BB75000830
:1000F000BB750008BB750008BB750008BB75000820
:10010000BB750008BB750008BB750008BB7500080F
:10011000BB750008BB750008BB750008BB750008FF
:10012000BB750008153F0008BB750008BB750008CB
:10013000BB750008F1400008BB750008BB750008DE
:10014000BB750008BB750008BB750008BB750008CF
:10015000BB750008BB750008BB750008BB750008BF
:10016000BB750008BB750008BB750008BB750008AF
:10017000BB750008BB750008BB750008BB7500089F
:10018000BB750008BB7500080000000000000000FF
:10019000000000000000000000000000000000005F
:0801A000BB750008BB750008E7
:1001A8000024E443A64607F005FAA6460E480F4980
:1001B8000022814201D004C0FBE70D480D490E4AD8
:1001C800814202D008CA08C0FAE70C484FF470010F
:1001D800026842EA01020260BFF34F8FBFF36F8FDC
:1001E80000B501F008FC00DEA80700202CCD002097
:1001F80000000020A8070020C0E9000888ED00E002
:10020800F0B503AF2DE9000B42F230099846C4F26D
:100218000109154659F8046CC6F3035007F02EF986
:10022800ECB206F010FBC0B2A04208D2284606F095
:100238001CFB00F00F0026F4700141EA005649F853
:10024800046C05F0CBFF0546DFE804F008520F5DAB
:100258001A68737A852590303B9B4049D9F8040089
:1002680065F30400C9F8040095E0D9F8040005F026
:100278001F0120F4F84040EA8120C9F804008AE010
:10028800D9F8040005F01F0120F0F87040EA015089
:10029800C9F804007FE0D9F8000005F01F0120F438
:1002A800782040EAC130C9F8000074E0D9F80000AD
:1002B80005F01F0120F0785040EA4160C9F80000BD
:1002C80069E059F8040C65F3040062E059F8040C7D
:1002D80005F01F0120F4F84040EA812059E059F860
:1002E800040C05F01F0120F4782040EAC13050E0EA
:1002F800D9F8040005F01F0120F4787040EA411095
:10030800C9F8040047E0D9F8040005F01F0120F4FB
:10031800782040EAC130C9F804003CE0D9F804006C
:1003280005F01F0120F0785040EA4160C9F8040048
:1003380031E0D9F8000065F30400C9F800002AE0AC
:10034800D9F8000005F01F0120F4787040EA411048
:10035800C9F800001FE0D9F8000005F01F0120F4DB
:10036800F84040EA8120C9F8000014E0D9F80000FC
:1003780005F01F0120F0F87040EA0150C9F80000AC
:1003880009E059F8040C05F01F0120F4787040EAE0
:10039800411049F8040C404606F067FAE9B2C3B2C6
:1003A8000A2909D259F8200C032205F0A3FB49F8C1
:1003B800200CBDE8000BF0BD13290AD259F8240C13
:1003C8000A39032205F096FB49F8240CBDE8000B16
:1003D800F0BD4CF2D0104CF21822C0F60000C0F666
:1003E80000020F210AF00DFBFEDED4D4F0B503AFF6
:1003F8002DE9000B42F230099846C4F2010915466E
:1004080059F8046CC6F3035007F038F8ECB206F05C
:100418001AFAC0B2A04208D2284606F026FA00F01E
:100428000F0026F4700141EA005649F8046C05F003
:10043800D7FE0546DFE804F008520F5D1A68737AA4
:10044800852590303B9B4049D9F8040065F30400AA
:10045800C9F8040095E0D9F8040005F01F0120F45C
:10046800F84040EA8120C9F804008AE0D9F804007D
:1004780005F01F0120F0F87040EA0150C9F80400A7
:100488007FE0D9F8000005F01F0120F4782040EA49
:10049800C130C9F8000074E0D9F8000005F01F0168
:1004A80020F0785040EA4160C9F8000069E059F846
:1004B800040C65F3040062E059F8040C05F01F0110
:1004C80020F4F84040EA812059E059F8040C05F07E
:1004D8001F0120F4782040EAC13050E0D9F8040028
:1004E80005F01F0120F4787040EA4110C9F80400B3
:1004F80047E0D9F8040005F01F0120F4782040EA0D
:10050800C130C9F804003CE0D9F8040005F01F0127
:1005180020F0785040EA4160C9F8040031E0D9F889
:10052800000065F30400C9F800002AE0D9F80000CB
:1005380005F01F0120F4787040EA4110C9F8000066
:100548001FE0D9F8000005F01F0120F4F84040EA48
:100558008120C9F8000014E0D9F8000005F01F0157
:1005680020F0F87040EA0150C9F8000009E059F895
:10057800040C05F01F0120F4787040EA411049F896
:10058800040C404606F071F9E9B2C3B20A2909D24F
:1005980059F8200C032205F0ADFA49F8200CBDE803
:1005A800000BF0BD13290AD259F8240C0A3903228A
:1005B80005F0A0FA49F8240CBDE8000BF0BD4CF298
:1005C800D0104CF21822C0F60000C0F600020F212D
:1005D8000AF017FAFEDED4D4F0B503AF2DE9000B0C
:1005E80042F230199846C4F20109154659F8046CCC
:1005F800C6F3035006F042FFECB206F024F9C0B28D
:10060800A04208D2284606F030F900F00F0026F480
:10061800700141EA005649F8046C05F0E3FD05460F
:10062800DFE804F008520F5D1A68737A8525903068
:100638003B9B4049D9F8040065F30400C9F804005D
:1006480095E0D9F8040005F01F0120F4F84040EACD
:100658008120C9F804008AE0D9F8040005F01F01D8
:1006680020F0F87040EA0150C9F804007FE0D9F89A
:10067800000005F01F0120F4782040EAC130C9F8D5
:10068800000074E0D9F8000005F01F0120F0785050
:1006980040EA4160C9F8000069E059F8040C65F3C4
:1006A800040062E059F8040C05F01F0120F4F8403A
:1006B80040EA812059E059F8040C05F01F0120F4A4
:1006C800782040EAC13050E0D9F8040005F01F0155
:1006D80020F4787040EA4110C9F8040047E0D9F8DE
:1006E800040005F01F0120F4782040EAC130C9F861
:1006F80004003CE0D9F8040005F01F0120F0785010
:1007080040EA4160C9F8040031E0D9F8000065F317
:100718000400C9F800002AE0D9F8000005F01F011C
:1007280020F4787040EA4110C9F800001FE0D9F8B9
:10073800000005F01F0120F4F84040EA8120C9F8C4
:10074800000014E0D9F8000005F01F0120F0F8704F
:1007580040EA0150C9F8000009E059F8040C05F016
:100768001F0120F4787040EA411049F8040C404613
:1007780006F07BF8E9B2C3B20A2909D259F8200C6D
:10078800032205F0B7F949F8200CBDE8000BF0BDCD
:1007980013290AD259F8240C0A39032205F0AAF9B8
:1007A80049F8240CBDE8000BF0BD4CF2D0104CF217
:1007B8002822C0F60000C0F600020F210AF021F935
:1007C800FEDED4D4F0B503AF2DE9000B42F23019A8
:1007D8009846C4F20109154659F8046CC6F303504B
:1007E80006F04CFEECB206F02EF8C0B2A04208D2D9
:1007F800284606F03AF800F00F0026F4700141EAA6
:10080800005649F8046C05F0EFFC0546DFE804F0F3
:1008180008520F5D1A68737A852590303B9B4049D2
:10082800D9F8040065F30400C9F8040095E0D9F884
:10083800040005F01F0120F4F84040EA8120C9F8BF
:1008480004008AE0D9F8040005F01F0120F0F870D0
:1008580040EA0150C9F804007FE0D9F8000005F02B
:100868001F0120F4782040EAC130C9F8000074E084
:10087800D9F8000005F01F0120F0785040EA4160E7
:10088800C9F8000069E059F8040C65F3040062E057
:1008980059F8040C05F01F0120F4F84040EA8120C3
:1008A80059E059F8040C05F01F0120F4782040EABB
:1008B800C13050E0D9F8040005F01F0120F4787029
:1008C80040EA4110C9F8040047E0D9F8040005F0EF
:1008D8001F0120F4782040EAC130C9F804003CE048
:1008E800D9F8040005F01F0120F0785040EA416073
:1008F800C9F8040031E0D9F8000065F30400C9F82C
:1009080000002AE0D9F8000005F01F0120F47870F3
:1009180040EA4110C9F800001FE0D9F8000005F0CE
:100928001F0120F4F84040EA8120C9F8000014E0D3
:10093800D9F8000005F01F0120F0F87040EA0150D6
:10094800C9F8000009E059F8040C05F01F0120F46B
:10095800787040EA411049F8040C404605F085FFDC
:10096800E9B2C3B20A2909D259F8200C032205F0CA
:10097800C1F849F8200CBDE8000BF0BD13290AD2D4
:1009880059F8240C0A39032205F0B4F849F8240C64
:10099800BDE8000BF0BD4CF2D0104CF22822C0F696
:1009A8000000C0F600020F210AF02BF8FEDED4D4B6
:1009B800F0B503AF2DE9000B42F230299846C4F296
:1009C8000109154659F8046CC6F3035006F056FDA4
:1009D800ECB205F038FFC0B2A04208D2284605F0B4
:1009E80044FF00F00F0026F4700141EA005649F870
:1009F800046C05F0FBFB0546DFE804F008520F5DC8
:100A08001A68737A852590303B9B4049D9F80400D1
:100A180065F30400C9F8040095E0D9F8040005F06E
:100A28001F0120F4F84040EA8120C9F804008AE058
:100A3800D9F8040005F01F0120F0F87040EA0150D1
:100A4800C9F804007FE0D9F8000005F01F0120F480
:100A5800782040EAC130C9F8000074E0D9F80000F5
:100A680005F01F0120F0785040EA4160C9F8000005
:100A780069E059F8040C65F3040062E059F8040CC5
:100A880005F01F0120F4F84040EA812059E059F8A8
:100A9800040C05F01F0120F4782040EAC13050E032
:100AA800D9F8040005F01F0120F4787040EA4110DD
:100AB800C9F8040047E0D9F8040005F01F0120F444
:100AC800782040EAC130C9F804003CE0D9F80400B5
:100AD80005F01F0120F0785040EA4160C9F8040091
:100AE80031E0D9F8000065F30400C9F800002AE0F5
:100AF800D9F8000005F01F0120F4787040EA411091
:100B0800C9F800001FE0D9F8000005F01F0120F423
:100B1800F84040EA8120C9F8000014E0D9F8000044
:100B280005F01F0120F0F87040EA0150C9F80000F4
:100B380009E059F8040C05F01F0120F4787040EA28
:100B4800411049F8040C404605F08FFEE9B2C3B2E3
:100B58000A2909D259F8200C032204F0CBFF49F8DE
:100B6800200CBDE8000BF0BD13290AD259F8240C5B
:100B78000A39032204F0BEFF49F8240CBDE8000B33
:100B8800F0BD4CF2D0104CF23822C0F60000C0F68E
:100B980000020F2109F035FFFEDED4D4F0B503AF13
:100BA8002DE9000B42F230299846C4F20109154696
:100BB80059F8046CC6F3035006F060FCECB205F07B
:100BC80042FEC0B2A04208D2284605F04EFE00F010
:100BD8000F0026F4700141EA005649F8046C05F04C
:100BE80007FB0546DFE804F008520F5D1A68737AC0
:100BF800852590303B9B4049D9F8040065F30400F3
:100C0800C9F8040095E0D9F8040005F01F0120F4A4
:100C1800F84040EA8120C9F804008AE0D9F80400C5
:100C280005F01F0120F0F87040EA0150C9F80400EF
:100C38007FE0D9F8000005F01F0120F4782040EA91
:100C4800C130C9F8000074E0D9F8000005F01F01B0
:100C580020F0785040EA4160C9F8000069E059F88E
:100C6800040C65F3040062E059F8040C05F01F0158
:100C780020F4F84040EA812059E059F8040C05F0C6
:100C88001F0120F4782040EAC13050E0D9F8040070
:100C980005F01F0120F4787040EA4110C9F80400FB
:100CA80047E0D9F8040005F01F0120F4782040EA55
:100CB800C130C9F804003CE0D9F8040005F01F0170
:100CC80020F0785040EA4160C9F8040031E0D9F8D2
:100CD800000065F30400C9F800002AE0D9F8000014
:100CE80005F01F0120F4787040EA4110C9F80000AF
:100CF8001FE0D9F8000005F01F0120F4F84040EA91
:100D08008120C9F8000014E0D9F8000005F01F019F
:100D180020F0F87040EA0150C9F8000009E059F8DD
:100D2800040C05F01F0120F4787040EA411049F8DE
:100D3800040C404605F099FDE9B2C3B20A2909D26C
:100D480059F8200C032204F0D5FE49F8200CBDE820
:100D5800000BF0BD13290AD259F8240C0A390322D2
:100D680004F0C8FE49F8240CBDE8000BF0BD4CF2B5
:100D7800D0104CF23822C0F60000C0F600020F2155
:100D880009F03FFEFEDEF0B503AF4DF8048D0446D2
:100D9800086A15460E46B8B146F20848C4F2020879
:100DA80058F8080CC0F3401006F06DFB30B3B18C56
:100DB8002020C8F80000022928D90120C4E901052B
:100DC80020605DF8048BF0BD00F061FD46F208403C
:100DD8002021C4F20200022201604561F169C2606B
:100DE80082680029F56142F0010282604BD0002040
:100DF8006160207220605DF8048BF0BD0020C4E9BA
:100E08000105012020605DF8048BF0BDD8F80800CA
:100E1800C0F3C04006F031FBB8B1C8F81450D8F898
:100E2800140006F02EFBA84222D1F169F5610029D1
:100E3800DDD14CF2AC204CF2D822C0F60000C0F64E
:100E480000022B2109F0DDFDFEDEC8F81850D8F8A5
:100E5800180006F016FBA8420AD1306A3562F0B1D4
:100E6800012160602172002020605DF8048BF0BDD4
:100E78000220A56060602020C8F8000001202060E2
:100E88005DF8048BF0BD4CF2AC204CF2F822C0F6B1
:100E98000000C0F600022B2109F0B3FDFEDE4CF283
:100EA800AC204CF2E822C0F60000C0F600022B216C
:100EB80009F0A7FDFEDEF0B503AF4DF8048D04463A
:100EC800086A15460E46C0B146F20848C4F2020840
:100ED80058F8080CC0F3405006F0D5FA40B3B18C6E
:100EE8004FF40010C8F80000022929D90120C4E9EC
:100EF800010520605DF8048BF0BD00F00EFD46F2A0
:100F080008404FF40011C4F2020002220160456457
:100F1800F169C263826B0029F56142F001028263C4
:100F28004CD000206160207220605DF8048BF0BD19
:100F38000020C4E90105012020605DF8048BF0BDA4
:100F4800D8F83800C0F3C04006F097FAB8B1C8F82E
:100F58004450D8F8440006F094FAA84222D1F16926
:100F6800F5610029DDD14CF2AC204CF2D822C0F654
:100F78000000C0F600022B2109F043FDFEDEC8F890
:100F88004850D8F8480006F07CFAA8420AD1306ADE
:100F98003562F8B1012160602172002020605DF89F
:100FA800048BF0BD0220A56060604FF40010C8F803
:100FB8000000012020605DF8048BF0BD4CF2AC20ED
:100FC8004CF2F822C0F60000C0F600022B2109F00E
:100FD80018FDFEDE4CF2AC204CF2E822C0F6000010
:100FE800C0F600022B2109F00CFDFEDEF0B503AFC0
:100FF8004DF8048D0446086A15460E46C0B146F2FF
:101008000848C4F2020858F8080CC0F3C02006F0DB
:101018003AFA40B3B18C4FF40060C8F800000229D6
:1010280029D90120C4E9010520605DF8048BF0BDD1
:1010380000F0E6FB46F208404FF40061C4F20200FB
:1010480002220160C562F1694262026A0029F56103
:1010580042F0010202624CD00020616020722060E0
:101068005DF8048BF0BD0020C4E901050120206073
:101078005DF8048BF0BDD8F82000C0F3C04006F03E
:10108800FCF9B8B1C8F82C50D8F82C0006F0F9F9DA
:10109800A84222D1F169F5610029DDD14CF2AC20DA
:1010A8004CF2D822C0F60000C0F600022B2109F04D
:1010B800A8FCFEDEC8F83050D8F8300006F0E1F998
:1010C800A8420AD1306A3562F8B101216060217204
:1010D800002020605DF8048BF0BD0220A5606060F0
:1010E8004FF40060C8F80000012020605DF8048B10
:1010F800F0BD4CF2AC204CF2F822C0F60000C0F66D
:1011080000022B2109F07DFCFEDE4CF2AC204CF2F3
:10111800E822C0F60000C0F600022B2109F071FC9D
:10112800FEDEF0B503AF2DE9000F93B00646B868B0
:101138000D461C4693464178019181780291C17809
:101148000491017B0B91C17A0A91817A0991417AC4
:101158000891C179079181790691417990F80090B9
:1011680090F8088000790591039000F090FB46F212
:10117800104AC4F2020ADAF8000020F06060CAF8E7
:10118800000005F037F8DAF8000020F0C000CAF8CF
:10119800000042F24C00CDF830B0C4F20100CAF8A9
:1011A8000CB0CAF8080054B1CAF81040B8F1000FE2
:1011B80018BF4FF001084FEA884BA04606E0B8F187
:1011C800000F4FF0000BA04640F0AC800220CAF898
:1011D80004003D204AF8080C4846DAF8004005F0BB
:1011E8000AF800F0030024F4403141EA0040CAF84C
:1011F8000000DAF80000012161F34E30CAF800005F
:10120800DAF8000061F3CC20CAF80000DAF8000030
:10121800019920F48060002918BF00F58060CAF8A1
:101228000000DAF80000029920F40070002918BFC5
:1012380000F50070CAF80000DAF80000049920F000
:101248001000002918BF1030CAF80000DAF80000B2
:10125800039920F00800002918BF0830CAF80000D8
:10126800DAF80000059920F00400002918BF0430BE
:10127800CAF80000DAF80000069920F002000029F8
:1012880018BF0230CAF80000DAF81400079920F0F5
:101298008000002918BF8030CAF81400DAF800006E
:1012A80020F4802040EA0B00CAF80000DAF8144065
:1012B800089804F0A0FF60F30104CAF81440DAF8B3
:1012C8001400099920F00400002918BF0430CAF856
:1012D8001400DAF800400A9804F08DFF00F00300CB
:1012E80024F0C07141EAC050CAF80000DAF80040A2
:1012F8000B9804F080FF00F0030024F4C00141EAD9
:101308004050CAF800000ECD30460EC095E81E00C9
:101318001EC00220B0840C98C6E9070813B0BDE8C7
:10132800000FF0BD4CF248200021C0F600001291D9
:10133800119001200E904CF29420C0F600000F91FD
:101348004CF29C210D900DA8C0F6000109F0B2FBEB
:10135800FEDEF0B503AF2DE9000F93B00646B8687E
:101368000D461C4693464178019181780291C178D7
:101378000491017B0B91C17A0A91817A0991417A92
:101388000891C179079181790691417990F8009087
:1013980090F8088000790591039000F031FA46F240
:1013A800284A0221C4F2020ADAF8000061F35B60FD
:1013B800CAF8000004F01EFFDAF8000020F0C000B0
:1013C800CAF8000042F24C20CDF830B0C4F2010057
:1013D800CAF80CB0CAF8080054B1CAF81040B8F1FD
:1013E800000F18BF4FF001084FEA884BA04606E0EF
:1013F800B8F1000F4FF0000BA04640F0AD8002207E
:10140800CAF804004FF474604AF8200C4846DAF829
:10141800004004F0F0FE00F0030024F4403141EAFB
:101428000040CAF80000DAF80000012161F34E30EC
:10143800CAF80000DAF8000061F3CC20CAF800000E
:10144800DAF80000019920F48060002918BF00F53F
:101458008060CAF80000DAF80000029920F40070F1
:10146800002918BF00F50070CAF80000DAF800007B
:10147800049920F01000002918BF1030CAF80000A5
:10148800DAF80000039920F00800002918BF083096
:10149800CAF80000DAF80000059920F004000029D5
:1014A80018BF0430CAF80000DAF80000069920F0E6
:1014B8000200002918BF0230CAF80000DAF8140048
:1014C800079920F08000002918BF8030CAF814005E
:1014D800DAF8000020F4802040EA0B00CAF8000087
:1014E800DAF81440089804F086FE60F30104CAF89C
:1014F8001440DAF81400099920F00400002918BFF4
:101508000430CAF81400DAF800400A9804F073FEB0
:1015180000F0030024F0C07141EAC050CAF800008E
:10152800DAF800400B9804F066FE00F0030024F49B
:10153800C00141EA4050CAF800000ECD30460EC046
:1015480095E81E001EC00220B0840C98C6E9070862
:1015580013B0BDE8000FF0BD4CF248200021C0F6E2
:1015680000001291119001200E904CF29420C0F6C8
:1015780000000F914CF29C210D900DA8C0F60001BF
:1015880009F098FAFEDEF0B503AF2DE9000F93B02D
:101598000646B8680D461C46934641780191817805
:1015A8000291C1780491017B0B91C17A0A91817AE9
:1015B8000991417A0891C179079181790691417918
:1015C80090F8009090F8088000790591039000F059
:1015D800A4F946F2404A0121C4F2020ADAF80000EE
:1015E80061F35B60CAF8000004F004FEDAF800005A
:1015F80020F0C000CAF8000042F24C10CDF830B01C
:10160800C4F20100CAF80CB0CAF8080054B1CAF80C
:101618001040B8F1000F18BF4FF001084FEA884B8F
:10162800A04606E0B8F1000F4FF0000BA04640F0CE
:10163800AD800220CAF804004FF474104AF8380C40
:101648004846DAF8004004F0D6FD00F0030024F420
:10165800403141EA0040CAF80000DAF800000121F0
:1016680061F34E30CAF80000DAF8000061F3CC20CC
:10167800CAF80000DAF80000019920F48060002917
:1016880018BF00F58060CAF80000DAF80000029977
:1016980020F40070002918BF00F50070CAF8000097
:1016A800DAF80000049920F01000002918BF103063
:1016B800CAF80000DAF80000039920F008000029B1
:1016C80018BF0830CAF80000DAF80000059920F0C1
:1016D8000400002918BF0430CAF80000DAF8000036
:1016E800069920F00200002918BF0230CAF800004D
:1016F800DAF81400079920F08000002918BF80301C
:10170800CAF81400DAF8000020F4802040EA0B0040
:10171800CAF80000DAF81440089804F06CFD60F389
:101728000104CAF81440DAF81400099920F00400FA
:10173800002918BF0430CAF81400DAF800400A98E3
:1017480004F059FD00F0030024F0C07141EAC050D4
:10175800CAF80000DAF800400B9804F04CFD00F0DD
:10176800030024F4C00141EA4050CAF800000ECD3D
:1017780030460EC095E81E001EC00220B0840C98AA
:10178800C6E9070813B0BDE8000FF0BD4CF24820C9
:101798000021C0F600001291119001200E904CF229
:1017A8009420C0F600000F914CF29C210D900DA8DA
:1017B800C0F6000109F07EF9FEDED0B502AF84B0B4
:1017C800006840B101280DD101AC4CF20F32C0F6CF
:1017D80000020B230CE001AC4CF21A32C0F60002F6
:1017E800082305E001AC4CF20832C0F600020723DA
:1017F800204609F0AEFF204609F006FB04B0D0BD34
:10180800F0B503AF2DE9000B46F22846C4F20206F4
:10181800306800F0010005F030FEA8B33568C5F364
:10182800001005F02AFE0446C5F3C00005F025FEA9
:101838008046C5F3800005F020FE8146C5F34000D0
:1018480005F01BFE0546306820F01E003060306849
:1018580020F001003060306800F0010005F00DFE56
:101868000028F8D14FF47460002C46F8200C18BFFB
:10187800102465F34104306869F3820468F3C304F3
:1018880020F01E0020433060BDE8000BF0BDF0B52D
:1018980003AF2DE9000B46F21046C4F20206306889
:1018A80000F0010005F0E9FDA0B33568C5F30010AC
:1018B80005F0E3FD0446C5F3C00005F0DEFD8046F3
:1018C800C5F3800005F0D9FD8146C5F3400005F059
:1018D800D4FD0546306820F01E003060306820F0E6
:1018E80001003060306800F0010005F0C6FD0028F6
:1018F800F8D13D20002C46F8080C18BF102465F3D9
:101908004104306869F3820468F3C30420F01E00C0
:1019180020433060BDE8000BF0BDF0B503AF2DE902
:10192800000B46F24046C4F20206306800F001009F
:1019380005F0A3FDA8B33568C5F3001005F09DFDBB
:101948000446C5F3C00005F098FD8046C5F3800045
:1019580005F093FD8146C5F3400005F08EFD054670
:10196800306820F01E003060306820F001003060E0
:10197800306800F0010005F080FD0028F8D14FF430
:101988007410002C46F8380C18BF102465F3410475
:10199800306869F3820468F3C30420F01E00204312
:1019A8003060BDE8000BF0BD08464CF23231C0F69D
:1019B8000001022209F06FBD70474CF6F840002381
:1019C800C2F20000416842181372012222EA0101A2
:1019D800BFF35F8F416070474CF6EC400023C2F2C2
:1019E8000000416842181372012222EA0101BFF384
:1019F8005F8F4160704780B56F4605F0DCFDFFF7EB
:101A0800EBFFFFF7DAFF4CF629500121C2F2000084
:101A1800402201704EF20640CEF20000F021017023
:101A28004EF21001CEF200013023C1F8F02080F808
:101A380033304FF00073C1F8F43080F837204FF09E
:101A48000050C1F8F4004EF62350CEF200000022F8
:101A58000270086840F00200086000F003F802F025
:101A680098F9FEDEF0B503AF2DE9000FADF5137D53
:101A78004CF628500DF14808C2F20000012101700F
:101A8800404604F056FB7AA9B8E87C0008467CC0BA
:101A9800B8E87C007CC098E87C007CC064AC47F661
:101AA8004002C0F27D12204604F0B0FB7AAD214618
:101AB800284604F005FC4DF2801464AEC0F6F0042C
:101AC80029463046224604F0E9FB7AAD31462246E3
:101AD800284604F0ADFB43F2604464AEC0F23C24F7
:101AE80029463046224604F0B5FB7AAD31462246F7
:101AF800284604F0C1FB21AC2946204604F0F2FB3D
:101B0800204604F09EFE44F6D35100F5FA70C1F267
:101B18006201A0FB01014FF0FF3000EB91100021A2
:101B2800B1EB106F40F00983002800F012834EF2E9
:101B38001002CEF20002116821F001011160116853
:101B480041F004011160506004F0FDFA04F00AFB52
:101B580004F017FB04F024FB04F031FB41F2000011
:101B68004FF40011C4F20200012581614FF0805248
:101B7800416840F25824C4F2472421F02001416012
:101B8800016865F38B2101604FF000718161416844
:101B980021F400714160016865F3934101600021FF
:101BA800C4F202018A614A6822F480524A600A68D3
:101BB80065F319620A600A6842F0C0020A600A689E
:101BC80042F440720A600A6842F440620A600A6895
:101BD80042F440520A60D0F8001441F44021C0F8A1
:101BE8000014D0F8001441F44011C0F80014C4F8EF
:101BF800005405F0EAFC0021002025604FF001099F
:101C0800079021607AAC204604F050FE64AD21466E
:101C18000322284604F02AFE0DF5F47B294600220B
:101C2800584604F02BFE64AC59460222204604F0C4
:101C380035FE0DF1A80821460122404604F026FE93
:101C48004046594690E87C007CC12FAC01212046D3
:101C58005A4603F051FE0DF5127A2046002207235A
:101C68005146FEF7CDFA2046514601220723FEF7DA
:101C7800BDFB4046594690E87C007CC136AC01214A
:101C880020465A4604F05DF82046514600220723B4
:101C9800FEF7A2FC2046514601220723FEF792FDDB
:101CA80098E86E003DAC58466EC0204601215A4661
:101CB80004F044F92046514600220723FEF778FE37
:101CC8002046514601220723FEF768FF05F080FCF5
:101CD800044605F070FC05F087FC4CF6C04104F0A2
:101CE8000100C2F200010D7925B9002281F80490A3
:101CF8000A600791002808BF05F05FFC002D40F03E
:101D0800F58105F065FC044605F055FC04F0010575
:101D180005F06AFC4CF6C6404FF00008C2F200001D
:101D2800047924B9C0F80080012180460171002D92
:101D380008BF05F042FC002C40F0D88105F048FCB3
:101D4800044605F038FC04F0010505F04DFC4CF69E
:101D5800CC404FF0000AC2F20000047924B9C0F860
:101D680000A0012182460171002D08BF05F025FC65
:101D7800002C40F0BB8105F02BFC044605F01BFC51
:101D880004F0010505F030FC4CF6D2404FF0000994
:101D9800C2F20000047924B9C0F8009001218146FC
:101DA8000171002D08BF05F008FC002C40F09E8151
:101DB80005F00EFC044605F0FEFB04F0010505F0F5
:101DC80013FC4CF6D8400026C2F2000004791CB976
:101DD8000660012106460171002D08BF05F0EDFBE4
:101DE800002C40F0838105F0F3FB044605F0E3FB8B
:101DF80004F0010505F0F8FB4CF6DE400021C2F2C4
:101E0800000004791CB90160012101710146002D0F
:101E1800029108BF05F0D1FB002CCDE9056ACDE998
:101E2800039840F063810DF5F478404604F0E4F936
:101E38004FF0010ABDF8EE018DF8EBA10DF1BC09D8
:101E4800DDF8EA11ADF8140140464491DDF8F1B12E
:101E58009DF8E851B9E80E000EC099E84E000DF55E
:101E6800C8794EC00023BDF81401ADF896010020D2
:101E7800079A44998DF8980146A8CDF892114146E1
:101E88008DF891A18DF89051CDF899B1CDF80090C9
:101E9800FFF747F936AC40460ECC0EC094E84E002A
:101EA8004EC00023BDF81401ADF896010020069A33
:101EB80044998DF8980150A8CDF8921141468DF8B3
:101EC80091A18DF89051CDF899B1CDF80090FFF718
:101ED8005AFB3DAC40460ECC0EC094E84E004EC0B6
:101EE8000023BDF814018DF891A10DF5B47A059A77
:101EF8004499ADF896010020CDF8921141468DF82D
:101F0800980150468DF89051CDF899B1CDF80090D0
:101F1800FFF71FFA21AC48464ECC4EC094E86E003D
:101F28006EC003F0F7F803F00BF903F01FF903F0A4
:101F380034F903F049F903F05EF903F073F903F09B
:101F4800C2F846F628311020C2F200010DF1200B2C
:101F5800CDE9001040F6A81292A9C2F20002584634
:101F6800102303F076F9B9E82E0040462EC099E810
:101F78003E003EC05846414603F04BFC002840F066
:101F8800C1800BF10401DDF820C0424691E87900D8
:101F9800BCF1000F79C200F0B58098E85E004CF6FD
:101FA800A845C2F20005281D5EC02846C5F800C035
:101FB80003F006FB0DF5F47940F23801C2F2000196
:101FC8002A46484600F05DFF64A8494658220AF0B0
:101FD800E1F8909C01F0E2FE002840F09C80079414
:101FE80001F038FF002840F0968046F21046C4F20F
:101FF800020646AC306840F001003060204603F02D
:102008005CFD306B0DF5A07840F001003063404670
:1020180003F077FFB06940F00100B061504604F06A
:102028006BF84CF6B85064A9C2F2000058220AF0C6
:10203800B1F86ECC48466EC094E86E006EC04CF69F
:102048005C50C2F20000B8E86E006EC098E86E00FE
:102058006EC05846BAE86E006EC09AE86E006EC050
:102068004CF63050C2F20000B9E86E006EC099E834
:102078006E006EC04CF68850C2F20000BBE86E00DD
:102088006EC09BE86E006EC04CF61060C2F2000095
:1020980007994EF2100201604CF65850C2F2000047
:1020A800049901604CF68450C2F200000399016063
:1020B8004CF6B050C2F20000029901600020CEF246
:1020C80000029060116841F0010111604CF618514E
:1020D8000122C2F20001C1E90020C1E9020005F0B5
:1020E8006CFA0DF5137DBDE8000FF0BD4CF2B4405D
:1020F8004CF29442C0F60000C0F600022B2108F012
:1021080080FCFEDE4CF294404CF27843C0F60000AE
:10211800C0F6000307E04CF294404CF2A443C0F62A
:102128000000C0F6000300904CF24C40C0F60000DE
:1021380092AA2B2108F0D4FCFEDE4CF648004CF69F
:10214800D002C0F60000C0F60002272108F059FCB2
:10215800FEDE4CF6E0004CF6FC02C0F60000C0F6CD
:1021680000021C2108F04DFCFEDE7047F0B503AFFD
:102178002DE90007D0E90065884634780D2C1CD27B
:102188004FF00D0A302086F800A005F02AFA95F8DD
:102198000090B9F10D0F25D2302085F800A005F088
:1021A80020FA404600F082F90020A0EB0910C0B2E6
:1021B80005F017FA85F8009017E02C780D2C1ED240
:1021C8000D202870302005F00CFA404600F06EF91A
:1021D8000020A0EB0410C0B205F003FA2C70BDE893
:1021E8000007F0BD404600F061F90020A0EB0410A4
:1021F800C0B205F0F6F93470BDE80007F0BD4046FE
:10220800BDE80007BDE8F04000F050B9F0B503AFF5
:102218002DE9000F89B0D0F800808B46054698F864
:1022280000A0BAF10D0F27D20D24302088F8004005
:1022380005F0D7F9686890F80090B9F10D0F41D210
:1022480004700190302005F0CCF902A89BE87C10BE
:10225800014681E87C104CF6B851C2F200010891A1
:1022680000F05AF80020A0EB0910C0B205F0B9F947
:10227800019880F8009032E0D5F8048098F8009032
:10228800B9F10D0F37D20D2088F80000302005F085
:10229800A8F902A89BE87C10014681E87C104CF65E
:1022A800B851C2F20001089100F036F80020A0EB06
:1022B8000910C0B205F095F988F8009009B0BDE89A
:1022C800000FF0BD02A89BE87C10014681E87C1055
:1022D8004CF6B851C2F20001089100F01DF8002038
:1022E800A0EB0A10C0B205F07CF988F800A009B08C
:1022F800BDE8000FF0BD02A89BE87C10014681E80C
:102308007C104CF6B851C2F20001089100F004F8B4
:1023180009B0BDE8000FF0BDF0B503AF2DE9000F1F
:102328008BB002464CF610609369C2F20000006858
:10233800196D814240F287806821029300FB01F603
:10234800DB6C9E5D022E00F0858000FB013002F1FF
:10235800080BD2E900649BE8000ED2F8148018300C
:1023680008F01CFB002800F081800546406AE96AF5
:10237800884264D030882188B9F80020BAF8003043
:10238800BBF80060B8F80040ADF812300523ADF88E
:1023980010200022ADF80E10FE21ADF80C00A92087
:1023A800ADF81640ADF8146006F0ADFC08AE014675
:1023B800304606F06AFB06A8314646F2DD3206F0E2
:1023C800A1FBDDE9060108ABCDE9080103A9284610
:1023D8000C2208F030FAC0B20B2853D105F0F8F8F7
:1023E800054605F0E8F805F0FFF84CF61851C2F27A
:1023F8000001D1E9000280F00100104305F001005E
:102408000ED14EF21002CEF200021268D1E9025645
:10241800D20307D5013546F10006C1E9025601E0AD
:1024280000250026002808BF05F0C7F84FF47A7089
:10243800A5FB002106FB0013029801F0FDFA0BB082
:10244800BDE8000FF0BD4CF2C832C0F6000208F03B
:1024580011FBFEDE4CF214404CF23C42C0F6000088
:10246800C0F60002272108F0CCFAFEDE4CF2D83084
:102478004CF20442C0F60000C0F60002292108F020
:10248800BBFAFEDE8DF820004CF22850C0F60000A2
:102498004CF2185300904CF2EA4008AAC0F600002B
:1024A800C0F600032B2108F01BFBFEDEF0B503AFDE
:1024B8002DE9000B88B04CF6B8558146C2F20005EC
:1024C800A86C03F08FF805F083F8064605F073F85A
:1024D80005F08AF84CF61858C2F20008D8E900014D
:1024E80080F00100084306F001000ED14EF2100101
:1024F800CEF200010968D8E90264C90307D501369C
:1025080044F10004C8E9026401E000260024002820
:1025180008BF05F052F84FF47A70A6FB002104FBBF
:102528000013284601F088FA4CF61060296DC2F2B3
:1025380000000068814265D96821EA6C00FB01F35C
:10254800D35C022B65D000FB0120183008F026FA76
:1025580000286AD0054602A829464A464FF4007367
:1025680008F0ACF99DF80E00022817D0DDE9030148
:102578006B6AEE6A99F80020B34202F1010207F88B
:10258800212C0BD0CDE90601A7F1210106AB284685
:10259800012208F050F9C0B20B2852D105F018F802
:1025A800044605F008F805F01FF8D8E9000180F0A6
:1025B8000100084304F001000ED14EF21001CEF2E2
:1025C80000010968D8E90245C90307D5013445F176
:1025D8000005C8E9024501E000240025002808BFDD
:1025E80004F0EBFF4FF47A70A4FB002105FB001305
:1025F8004CF6B850C2F2000001F01EFA08B0BDE86F
:10260800000BF0BD4CF2C832C0F6000208F032FAF6
:10261800FEDE4CF214404CF23C42C0F60000C0F61C
:102628000002272108F0EDF9FEDE4CF2D8304CF21A
:102638000442C0F60000C0F60002292108F0DCF9C7
:10264800FEDE8DF818004CF23850C0F600004CF24F
:10265800185300904CF2EA4006AAC0F60000C0F6F3
:1026680000032B2108F03CFAFEDEF0B503AF2DE99C
:10267800000FA5B0D0F80CC0BCF1000F00F0AB8083
:10268800D0F804E00546BEF1000F00F0C980D5F887
:102698000880F04580F0D080D1F80090D9E901A0F9
:1026A800D9F80C20AAEB0006B24238BF16463318F8
:1026B80080F0CB80534500F2D0802A6808EB4803AD
:1026C80002EB83021346927953F804BB941E18BF99
:1026D8001C46022A00F0CA80B345CDF818A0CDE9FF
:1026E800008E5A46CDE902C5CDF81CB000F2CA806A
:1026F80001F1040B0B6905939BE844084B698D694C
:10270800D9F80010049301EB000810882188ADF86F
:1027180020009079ADF822108DF8280008A8D2F88A
:102728000210099106F016F831784FF0000A9DF86A
:102738002830099E2D68CDF831608DF830A08DF8CD
:102748003530A379D4F8026019AC8DF83D1007999B
:10275800089A08441090CDE912810DF12C08012047
:10276800119204220B90204641468DF83B20CDF86B
:1027780036608DF83A3004F0BBFF17A8214606F002
:10278800DCF91798CBF8000005989DF860108BF8D5
:102798000410006802F088FF10B3A64628462246B7
:1027A800B8E87818AEE8781898E878188EE87818B5
:1027B80000F0D1FC0499C0B20B280870079908BF33
:1027C8008A46069B93B1D9F808105144B1FBF3F23D
:1027D80002FB13110BE0002025B0BDE8000FF0BD8F
:1027E8004FF0000A0020069B002BECD10021D9F8FD
:1027F8000C200B28A2EB0A02C9E90212ECD10098BE
:10280800019A0130B0FBF2F101FB12000299039A20
:102818000139C2E902010B2025B0BDE8000FF0BD67
:102828004CF2D0504CF20C62C0F60000C0F6000228
:10283800392108F0E6F8FEDE4CF2AC524046C0F60C
:102848000002714608F016F9FEDE4CF2BC52194639
:10285800C0F6000209F084F8FEDE4CF2BC521846BD
:10286800C0F60002514609F056F8FEDE4CF29460BC
:102878004CF2C062C0F60000C0F600022B2108F03E
:10288800C0F8FEDE07984CF28462C0F600023146BA
:1028980009F041F8FEDEF0B503AF2DE9000F81B075
:1028A800D0F80C90B9F1000F32D00E4641680029DB
:1028B80041D083688B424AD2056803EB430205EB9B
:1028C8008204A479022C23D1D6F800A0DAE901BC4D
:1028D800DAF80C80ABEB0C06B04538BF464616EB71
:1028E8000C0E3CD2DE4543D8013355F82220B3FB09
:1028F800F1F404FB1131B24238BF1646BBF1000FA8
:102908000BD006EB0C02B2FBFBF303FB1B2205E02A
:10291800002001B0BDE8000FF0BD0022A8EB0603BF
:10292800CAE90223A9F10102C0E902120B2001B091
:10293800BDE8000FF0BD4CF2D0504CF20C62C0F66E
:102948000000C0F60002392108F05BF8FEDE4CF208
:10295800AC521846C0F6000208F08CF8FEDE4CF2C5
:10296800BC526046C0F60002714608F0F9FFFEDE70
:102978004CF2BC527046C0F60002594608F0CBFF34
:10298800FEDEF0B503AF4DF804BD84B00446F86828
:10299800B96804F10C05D0E900238068CDE901236A
:1029A80001AA0390284600F0ECF80646284621467E
:1029B80002F00AFFF1B2B1F10C0018BF084604B0EA
:1029C8005DF804BBF0BDF0B503AF2DE9000F93B07F
:1029D800D0E90186464580F0A78083464FF4C3605E
:1029E8001446DBF8002006FB002002F0F4FE002865
:1029F80000F08480029002A86568039102F0CBFE83
:102A080082462868894690F8401000297CD0B0F8A2
:102A18004510B9F10B0FD0F84100ADF8141004902F
:102A280040F28B8004AD284605F083FF062940F06C
:102A38008A80026804F108018088AAF80A002846FA
:102A4800CAF806203CC93CC091E83C003CC0049848
:102A580001688088ADF834000CA80C9105F069FF76
:102A6800062975D101688088AAF80400CAF8001000
:102A78009DF8140000283FD0B9F10D0FCDF804805F
:102A88006ED904A800F10408002005F07DFF00BA03
:102A980008AB0CACA9F10E09000CCDF84890AAF8C7
:102AA8000C000AF10E0A0ECBDDE90660CDE90E1224
:102AB80003F10C0211A9CDE90C602046CDF844A021
:102AC80002F0B3F9404606F0BFF8814551D3DDF86E
:102AD8002CC02246214698E8784082E87840A9EB45
:102AE80000030A9A00920AEB0002604604F03AFEDC
:102AF800DBF80860DDF804800B2406E00C2420468F
:102B080013B0BDE8000FF0BD0824DDE9020102F0B2
:102B180056FE701C404528BF0020CBF80800204610
:102B280013B0BDE8000FF0BD4CF614023046C0F6F5
:102B38000002414607F09EFFFEDE4CF240720C2078
:102B4800C0F6000211E04CF25072C0F6000203E039
:102B58004CF23072C0F60002062008F026FFFEDEB6
:102B68004CF260720E20C0F60002494608F0D3FE0F
:102B7800FEDE4CF2D0724946C0F6000208F0A6FE0E
:102B8800FEDEF0B503AF2DE9000F85B0D0E9019660
:102B98004E4568D283464FF4C3601446DBF80020E4
:102BA80006FB002002F017FE002846D0CDE90101FF
:102BB80001A8D4E9015802F0EEFD044628688A46C7
:102BC80090F8401000293ED0B0F84510BAF10B0F2C
:102BD800D0F84100ADF8101003904DD903A805F0C6
:102BE800A8FE06294ED10168808860814FF0FF3029
:102BF800ADF81000039003A8C4F8061005F099FE7C
:102C0800062944D10168BAF10D0F8088A08021609F
:102C180045D9012005F0B8FE00BA03A9000CA0812F
:102C2800AAF10E00049004F10E000390404601F052
:102C380048FFDBF808600B2406E00C24204605B0AA
:102C4800BDE8000FF0BD0824DDE9010102F0B7FD81
:102C5800701C484528BF0020CBF80800204605B066
:102C6800BDE8000FF0BD4CF614023046C0F6000275
:102C7800494607F0FFFEFEDE4CF240720C20C0F61B
:102C8800000211E04CF25072C0F6000203E04CF270
:102C98003072C0F60002062008F087FEFEDE4CF215
:102CA80060720E20C0F60002514608F034FEFEDEC7
:102CB800F0B503AF2DE9000F85B0D0E901964E4578
:102CC8006AD205464FF4C36014462A6806FB002002
:102CD80002F081FD00284AD0E268CDE9002001A871
:102CE800D4E9018B029102F056FD0446D8F80000A1
:102CF8008A4690F8401000293FD0B0F84510BAF144
:102D08000B0FD0F84100ADF8101003904DD903A86F
:102D180005F00FFE06294ED1016880886081C4F84D
:102D28000610BBF80400DBF80010ADF8100003A88B
:102D3800039105F0FEFD062942D10168BAF10D0F95
:102D48008088A080216043D9012005F01DFE00BACB
:102D580003A9000CA081AAF10E00049004F10E0052
:102D68000390009801F0ADFEAE680B2406E00C2439
:102D7800204605B0BDE8000FF0BD0824DDE90101DB
:102D880002F01DFD701C484528BF0020A8602046A1
:102D980005B0BDE8000FF0BD4CF614023046C0F691
:102DA8000002494607F066FEFEDE4CF240720C2037
:102DB800C0F6000211E04CF25072C0F6000203E0C7
:102DC8004CF23072C0F60002062008F0EEFDFEDE7E
:102DD8004CF260720E20C0F60002514608F09BFDCE
:102DE800FEDE80B56F464CF628500124C2F2000082
:102DF800047003F0D5F941F218054FF40018C4F235
:102E080002052026C5F8008055F8140C20F0200093
:102E180045F8140C55F8180C64F38B204CF2C06478
:102E2800C0F22D0445F8180C2046C5F8008004F0BF
:102E3800C6FB20462E6004F0C2FBF5E780B56F465E
:102E48008AB008A901900120069100210790CDE9D8
:102E580003014CF62400C0F600004CF6380102903D
:102E680042F68360C0F60000C0F60001099001A890
:102E7800089002A807F01EFEFEDE006804F007BBFB
:102E88007047F0B503AF2DE9000FD3B002900220D0
:102E98008B46002681F810010D4681F8F80092460D
:102EA80081F8E00016AA81F8C8004FF0080881F8F8
:102EB800B00081F8980081F8800001F55A710BF88C
:102EC800680F4FF400704590CDE91B0605F5AD601D
:102ED800449105F52A71CDE9196005F542704091D4
:102EE80040A9169003A8CDE94666CDE94266CDF81B
:102EF80004811D96CDE9178607F07EFC48F2000094
:102F08002DACC0F2E10016A916902046ADF85C6021
:102F180006F0CAF8204604F070FC05F5ED64BDF82B
:102F2800B8002D994FF00109ADF839012046CDF8C8
:102F38003511012104F086FC05F5947040A9CDE90E
:102F48004466CDE94A9016A8CDE940668DF83B6104
:102F58008DF83491CDF83081CDE94895CDE946A476
:102F6800CDE942B800F098FE40AC03A94C222046B7
:102F780008F0E2FF2DA8214607F00AFDDDE929A99E
:102F88006FF0670009FB00F00025811900F0A180AF
:102F98001AF806200AEB0604022A25D011F1680265
:102FA80000F0978094F86820022A18D011F1D00216
:102FB80000F08F8094F8D020022A13D011F59C7F5E
:102FC80000F0878094F8381106F5D0760435022988
:102FD800DBD10AEB0600013DA0F1680404E0683487
:102FE800013501E0D034023540AE2DA94C223046DF
:102FF80008F0A2FF28462146324604F0F6FA0546B4
:1030080081455DD9682005FB00F11AF801100229F5
:103018006BD005FB00A0183007F0C0FC002870D06A
:10302800044640A846F2DD3105F073FDBDF8000105
:10303800002872D0B4F84000002870D1DDE94001C2
:10304800C4E9100104F0C4FA044604F0B4FA04F028
:10305800CBFA4CF61851C2F20001D1E9000280F017
:103068000100104304F001000ED14EF21002CEF21E
:1030780000021268D1E90246D20307D5013446F1AD
:103088000006C1E9024601E000240026002808BF26
:1030980004F093FA4FF47A70A4FB002106FB0013A6
:1030A80016A800F0C9FCC00741D1029C16A95822F5
:1030B800204609F06FF8A56553B0BDE8000FF0BDD4
:1030C8004CF2C8322846C0F60002494607F0D2FC46
:1030D800FEDE4CF234304CF2B832C0F60000C0F6D6
:1030E8000002232107F08DFCFEDE4CF214404CF266
:1030F8003C42C0F60000C0F60002272107F081FC20
:10310800FEDE4CF2D8304CF20442C0F60000C0F6A5
:103118000002292107F070FCFEDE022000E00120F9
:103128008DF800014CF65410C0F6000005E04CF68E
:1031380064108DF80011C0F600004CF638130090AA
:103148004CF60C1040AAC0F60000C0F600032B2174
:1031580007F0C6FCFEDEF0B503AF2DE9000FA3B003
:103168000DF1640A0E46814611465046904604F019
:10317800BFFA0AADD9E90C235146284605F0EDFC03
:103188009DF82840022C05D19DF8290023B0BDE800
:10319800000FF0BD0DF1140BA91C0BF10200122257
:1031A80004969DF8296008F0F3FF13AD59468DF891
:1031B800156028468DF8144005F0AFFC15AE594649
:1031C800304605F0BAFCDDF84D00039030469DF816
:1031D8004C4005F04EFC20B14FF6FF704FF0FF3128
:1031E8002BE015A805F037FC00285AD015A805F0E3
:1031F80027FC9DF85420002A00F0F5800229C0F031
:10320800D880022900F0DD80032940F2E38041786C
:103218000122408801F07F01ADF868005E208DF83A
:1032280067108DF866000AA819A9ADF8642006226F
:1032380005F06BFBBDF82C000A9909F120031091E9
:10324800ADF844000DF1280C0FCB8CE80F00584660
:1032580005F00DFD00F10E0110A81B900AF10C00FD
:10326800CDF84C901591CDE919659BE87C007CC0A0
:103278000AA85246049E219006F10C04CDF88880D5
:103288002046FFF7A0FB05462046314602F09CFA8F
:10329800E9B2B1F10C0018BF084623B0BDE8000F31
:1032A800F0BDD9E9000115AACDE9000119A84946E0
:1032B80004F0FAFD9DF86400022805D19DF8650028
:1032C80023B0BDE8000FF0BD8DF84000D9F810001C
:1032D800BDF866109DF8652000289DF86830ADF8A7
:1032E80042108DF844308DF8412000F08880D9E9EB
:1032F800000209F10801CDE9000219A810AA0291FB
:1033080007F0F8F99DF86400B0B102280FD0002C3E
:103318001CBF9DF840005FEAC07012D1D9F81000B8
:10332800002875D0D9E90023029807F05BFA02203B
:1033380023B0BDE8000FF0BDBDF86900DDF86510E9
:103348007BE799F8400078B319AC4FF0FF31DDF80E
:1033580041000023039ACDF86E20D9F841201E9031
:103368002046CDF87210ADF87610B9F84510ADF8D2
:103378006430ADF86C101A9207F011FB0E301890FB
:1033880000900AA8019017A9D9E9002304980B9185
:1033980018A9CDF85C900C940A91FFF7F2FAC0B224
:1033A8000B287FF4F3AEB9E7082023B0BDE8000F7F
:1033B800F0BD4CF6F4220120C0F6000207F05AFBDB
:1033C800FEDE4CF604320220C0F60002022107F0AD
:1033D80051FBFEDE4CF614320320C0F60002032136
:1033E80007F048FBFEDE4CF660204CF62432C0F6AF
:1033F8000000C0F60002282107F003FBFEDE4CF6B1
:1034080098204CF64432C0F60000C0F6000207E0EF
:103418004CF698204CF63432C0F60000C0F6000294
:103428002B2107F0EEFAFEDEF0B503AF2DE9000F11
:10343800B5B05C6882460E2C08D20420CAF8000099
:103448008AF8040035B0BDE8000FF0BD1D682AAE4B
:1034580090468B4630460622294605F056FA3046F5
:1034680005F06EFA00BB0CAE29460622304605F080
:103478004CFA304605F06FFAB0B90CA82946062276
:1034880005F043FA9BF84000C00700F09082BDF8B1
:1034980034000C99DBF84130BBF8452080B2594024
:1034A8005040084340F0C580A88900BA000C05F0D8
:1034B80056FA80B228B3012834D1A4F10E000828A6
:1034C800BBD3A97CEA7C1144043149008142B4D8B9
:1034D80005F10E01CDE92A100CA82AA9DBE9006440
:1034E80001F0D5FBBDF83000032833D19DF8320038
:1034F8000421CAF800108AF8040035B0BDE8000FAE
:10350800F0BDA4F10E01042014294FF0040219D3D0
:1035180005F10E023C26137806EA830399420BD282
:1035280004220FE00420CAF8000006208AF80400EC
:1035380035B0BDE8000FF0BD2E8A36BAB3EB164F92
:103548007ED90822CAF800008AF8042035B0BDE800
:10355800000FF0BD09900D981199269021901CA894
:10356800BDF83820DDF83A30CDE90764ADF89C2085
:10357800ADF888200A93069105F087FADBF8340045
:10358800002856D0DBF8305000EB8008DDF8719049
:103598000CAE9DF8704003E00535B8F1050848D039
:1035A8003046294605F0A8FA9DF83000A042F3D12C
:1035B800002C1CBFDDF831004845EDD1099C022CD8
:1035C8005DD00AA805F0B9FB002858D021A805F05D
:1035D800B2F9002853D00A980CA9CDF8310001207F
:1035E8008DF83000584604F016FC002847D0DBF868
:1035F8001000002800F0FF8118AD0A99284605F050
:1036080044FABDF888101CAE2198ADF834100CA906
:103618000C90304605F048FD079829460090324640
:10362800089801900BF1080006F0C8FE002C00F085
:1036380054810320CAF8000035B0BDE8000FF0BD82
:10364800330C9942FFF46CAF0DF1A809CDE90A21BA
:103658000BF12C020AA9484601F099FC9DF8B440E8
:103668009DF8A8000B2C0CD14FF0030E8DF83400F8
:10367800CDF830E0BEF1030F00F0248170E108209E
:1036880022E1DDF8A910DDF8AD202C9BCDF86520EE
:10369800CDF861101A931999BDF8B5609DF8B75027
:1036A8008DF860005846ADF86D608DF86F5008943D
:1036B8008DF86C4004F070F900286ED018AEDDE982
:1036C8000A5100294DCECDF87F60CDF87B30CDF87A
:1036D8007720CDF8730000F06181032940F27381EF
:1036E80028783C2202EA80006A8812BA130CB0EBF0
:1036F800124F00F270819942CDE904050693C0F09B
:1037080072811A9921A8079105F0BFF9DBF83400F6
:1037180000284ED0DBF8309000EB80069DF88450EE
:103728002AACDDF88510099103E009F10509053E89
:103738003FD02046494605F0DFF99DF8A800A84289
:10374800F3D1002D1EBFDDF8A90009998842ECD1FC
:1037580006980499A0EB01090598441808980128CF
:1037680064D004287AD101202AAD8DF8A800681CFD
:103778001CA9132208F00CFD002059468DE81102FF
:103788000CA842462B46A94604F0F7F9DDF830E0CC
:10379800BEF1030F00F09680E2E04FF0030E08211F
:1037A800CDF830E08DF83410BEF1030F00F08A80B8
:1037B800D6E0079C2AA8214605F067F95846214615
:1037C80004F0E1F80028C3D19BF847000DF1A809DF
:1037D800002800F0BE8018A8083005F0AEFA0028CE
:1037E80000F0B7801A98DBE90012CDF885000120B7
:1037F800CDE900120BF138018DF8840026A821AA22
:1038080005F0A9FB9DF89840022C00F0A280DBF897
:103818003400002800F09B80DBF8305000EB800675
:103828000DF1A809DDF8991009917DE001202AAD74
:103838008DF8A800681C1CA9132208F0A9FC0CA884
:10384800594642462B46CDE90049A94604F0BEF840
:10385800DDF830E0BEF1030F34D081E018A805F0A0
:10386800A4FA024648464FF4107103F0BFFF8046A1
:10387800484500F2CC8018AB0DF1980C0DF1A80961
:103888000FCBCDF885008CE80F0040F20220CDF870
:10389800891021A9ADF8A80009F10300CDF88D2001
:1038A8001122CDF8913008F073FC0CA826AA5946CD
:1038B8004B46CDE92F4804F0E0F8DDF830E0BEF1E2
:1038C800030F4DD19DF834008AF804000420CAF88B
:1038D800000035B0BDE8000FF0BD9BF8400000289F
:1038E80000F09E80BDF88800AAF8160006980A998C
:1038F800219ACAF80E000120CAF812200222CAF83A
:103908001810AAF80400DBF84100BBF84510CAF803
:103918000020AAF80C10CAF8080035B0BDE8000F5E
:10392800F0BD0535053E12D04846294605F0E4F8B5
:103938009DF8A800A042F4D1002C1EBFDDF8A90014
:1039480009998842EDD19DF86C00089000E70DF1C7
:10395800A8094FF0020ECDF830E0BEF1030FB1D048
:10396800BEF1020F02D14FF0030E09E00CA94A463E
:1039780001F1040CBCE87A007AC29CE87B007BC2A7
:103988004AF804EBB9E84F00AAE84F0099E86F003D
:103998008AE86F0035B0BDE8000FF0BD4CF6E012C4
:1039A8000020C0F60002002107F064F8FEDE4CF6A5
:1039B80098204CF6E422C0F60000C0F600022B2145
:1039C80007F01FF8FEDE4CF6D0120420C0F6000205
:1039D80007F0A1FFFEDE4CF6F0121946C0F6000211
:1039E80007F0BEFFFEDE06984CF6F012C0F60002A5
:1039F80007F091FFFEDE4CF698204CF6C422C0F684
:103A08000000C0F600022B2106F0FBFFFEDE4CF69C
:103A1800D4224046C0F60002494607F07CFFFEDE8D
:103A28004CF660204CF68822C0F60000C0F6000272
:103A3800282106F0E6FFFEDEF0B503AF2DE9000F02
:103A4800B3B0814620A800F10E0B0430069012A8EE
:103A58000430079009F14C0009F148040A9000204D
:103A6800C9E90023CDE90849CDF80CB014E00229D2
:103A780000F0E680002940F0FE800498002818BF76
:103A880001200599DDF80CB00843DDE90849C007B5
:103A98004FF0010000F0E78002900BA8214601F0EA
:103AA800EFFD0B98002509E00125DDE90E0101F085
:103AB80012FE0BA8214601F0E3FD0B98002850D018
:103AC800DDE90C18CDE90E010EA801F0F0FD0A9A07
:103AD80010ABCDE9100112A84946FFF7A5FC1298D2
:103AE8000428E2D00328DFD0022829D107990DF154
:103AF800800AD44691E87D008CE87D00BBF804007C
:103B0800DBF80010ADF87C0050461E9106F047FF28
:103B180000F10E011EA830902CA808F10C052F907A
:103B28002DA82EAA2E902846CDF8B0902D91CDF82C
:103B3800C4A0FFF7BDF82846414601F045FE0DE058
:103B48002090DDE9061CBCE87C007CC19CE87D0077
:103B58007DC120AA48464146FFF7FDFA0125089C89
:103B6800A3E712A8214604950E9401F072FD0A9865
:103B780003F04AFD064688460020059003E0012030
:103B880005900BF1680646453FF477AFB34616F843
:103B9800680B0228F7D0C0B10998DBF80110DBE9FF
:103BA800024A9BF80520209120A9D0E900958DF8BC
:103BB800842004F0CBF928B9B9EB040075EB0A00AE
:103BC800E1DB02E000208BF8000002200BF1380551
:103BD8008DF82C000B208DF8B40020AE09980BF15D
:103BE80048041090DBE91601CDE92E019BF860002E
:103BF8009BF86110002808BF40218DF878102846EE
:103C080031462094FEF747FE10A826902DA825904F
:103C18000EA824900BA823901EA822902EA8314607
:103C2800CDE920402846FEF720FD9DF8B4100B2969
:103C38007FF41DAFC1B20029A3D00B299FD01AE091
:103C48009DF82C0002281BD009998DF8800020A827
:103C5800D1E90023DDF82D1000905846CDF88110E9
:103C680005F0F9F909E7029800F00101002033B0E6
:103C7800BDE8000FF0BD012033B0BDE8000FF0BD76
:103C88004CF654304CF66C32C0F60000C0F6000218
:103C9800162106F0B1FEFEDEF0B503AF2DE9000FE8
:103CA8008BB001F11806044605A80D46314601F00F
:103CB800D0FC95F83400C0074AD0D5F808B0BBF15D
:103CC800000F51D0D5E90010CDE90210E868049042
:103CD800B5F83900D5F83510ADF8280004F1200002
:103CE8000991314601F0B5FCD5E9040106F0E1F887
:103CF800D5E9069205F1280EE1614FF0000801921E
:103D0800029AA260039AC4E9032B049AC4E9052025
:103D18000122BDF828000999A4F845000198D5E9C1
:103D280008A39EE8405084F8402095F83B20C4F84A
:103D3800411004F13001C4E90088C4E912932665F2
:103D480081E8015484F847200BB0BDE8000FF0BDAE
:103D58004CF67C304CF6E032C0F60000C0F60002AB
:103D6800292106F049FEFEDE4CF6A5304CF6D0328D
:103D7800C0F60000C0F600022A2106F03DFEFEDE75
:103D880008464CF6F031C0F60001022207F083BB6A
:103D9800704780B56F4603F01EFCFCE7F0B503AF33
:103DA8002DE9000B03F014FC044603F004FC03F0B7
:103DB8001BFC4CF6E84804F00100C2F20008D8F8F1
:103DC8000450D8F80860BFF35F8FB5420BD008F1F4
:103DD80004010122294491F8089022EA0501BFF361
:103DE8005F8FC8F80410002808BF03F0E6FBB5424F
:103DF80029D003F0EDFB044603F0DDFB03F0F4FBF0
:103E0800D8F820004AF6AB22CAF6AA22411C08EBD1
:103E18004000A1FB0223002280F8259080F824208E
:103E2800BFF35F8F23F0010000EB5300081AC8F8B6
:103E38002000E00708BF03F0C0FB4EF2002040213D
:103E4800CEF200000160A81BB0FA80F04009BDE87E
:103E5800000BF0BDF0B503AF2DE9000B03F0B8FB84
:103E6800044603F0A8FB03F0BFFB4CF6E84804F057
:103E78000100C2F20008D8F81050D8F81460BFF357
:103E88005F8FB5420BD008F110010122294491F847
:103E9800089022EA0501BFF35F8FC8F810100028C8
:103EA80008BF03F08AFBB54229D003F091FB044612
:103EB80003F081FB03F098FBD8F820004AF6AB2208
:103EC800CAF6AA22411C08EB4000A1FB02230122EA
:103ED80080F8259080F82420BFF35F8F23F001003D
:103EE80000EB5300081AC8F82000E00708BF03F0E9
:103EF80064FB4EF200204021CEF200000160A81BB6
:103F0800B0FA80F04009BDE8000BF0BDF0B503AF92
:103F18002DE900078EB003F060FB4CF65859804637
:103F2800C2F200090020D9F80020C9F800000D20CD
:103F3800002A07F8450C00F091804CF6305106A88D
:103F4800C2F20001FCF71FFF0698002840F08F809E
:103F58004CF6845A079CC2F2000A0020DAF80020C6
:103F6800CAF80000002A00F08B804CF65C5106A8C5
:103F7800C2F20001FCF79FFF0698002840F08980F4
:103F88004CF6B055079EC2F2000500202A6828604A
:103F9800002A00F087804CF6885106A8C2F200017A
:103FA800FDF724F80698002840F088802188ADF8AD
:103FB8000C10618827F8421C31880798ADF810105A
:103FC800718827F83E1C0188ADF8141041882860D4
:103FD800A7F1450027F83A1C06A9CDE90C00A7F17E
:103FE8003A000B9005A80A90A7F13E00099004A892
:103FF8000890A7F14200079003A806900CA8C9F8FA
:104008000040CAF80060FEF701F946F21044C4F215
:104018000204206840F0010020604CF63050C2F2E3
:10402800000001F04AFD206B40F0010020634CF6CF
:104038005C50C2F2000001F064FFA06940F001008A
:10404800A0614CF68850C2F2000002F055F84046D4
:1040580003F0C7FA0EB0BDE80007F0BD4CF66C409F
:104068004CF6B842C0F60000C0F6000222E0DDE9D6
:104078000701CDE90C014CF63C40C0F6000025E0F4
:104088004CF66C404CF6A842C0F60000C0F60002A0
:1040980010E0DDE90701CDE90C014CF64C40C0F613
:1040A800000013E04CF66C404CF69842C0F6000055
:1040B800C0F600022B2106F0A4FCFEDEDDE90701B4
:1040C800CDE90C014CF65C40C0F600004CF62043EC
:1040D80000904CF6F2300CAAC0F60000C0F60003BF
:1040E8002B2106F0FDFCFEDED0B502AF84B003F054
:1040F80074FA04460C2007F8110CA7F1110040F2DD
:10410800A871CDE9020002A8C2F20001FEF72EF85C
:10411800204603F066FA04B0D0BDF0B503AF2DE930
:10412800000F85B04CF6E84BC2F2000BDBF81C0020
:10413800DBF82010BFF35F8F884207D1002005B05D
:10414800BDE8000FBDE8F04003F04BBA40F20009AB
:104158004FF6FF7AC2F2000921E04FF6FF70029B8A
:10416800AAF800004FF6FF7A2B80039810F00100A0
:1041780008BF03F022FA41F21401C4F202010868F0
:1041880080054FF0007058BF4FF400704860DBF8AE
:104198001C00DBF82010BFF35F8F8842CED04AF6B0
:1041A800AB22411CCAF6AA22A1FB02230BF11C0276
:1041B80002EB4000027A407ABFF35F8F5B0803EBA3
:1041C8004303C91ACBF81C10D10726D1DBF8081015
:1041D8000BEB0102107301208843BFF35F8FCBF80C
:1041E800080003F0F5F9044603F0E5F903F0FCF9DB
:1041F800DBE90C0180F00100084337D14EF21000D2
:10420800CEF200000068DBE90E56C00330D5013558
:1042180046F10006CBE90E562AE0DBF814100BEB4A
:104228000102107601208843BFF35F8FCBF814009A
:1042380003F0CEF9044603F0BEF903F0D5F9DBE943
:104248000C0180F00100084340F0AC804EF21000F1
:10425800CEF200000068DBE90E56C00340F1A480EE
:10426800013546F10006CBE90E569DE000250026F3
:1042780014F0010008BF03F0A0F903F0A9F90446FF
:1042880003F099F903F0B0F94CF6E84015F57A7B9C
:10429800C2F2000046F1000845688668BFF35F8FE8
:1042A800B5420CD04CF6E841C2F20001081D284482
:1042B800007A02900120A843BFF35F8F486014F092
:1042C800010008BF03F079F9B54200F0178303F045
:1042D8007FF9044603F06FF903F086F94CF6E845D8
:1042E800B9F83020C2F200052868D5E90C36411C1F
:1042F8002960B2EB0A0102EB420518BF09EBC501C0
:10430800334300F0E780524503940FD0D1E90012FF
:1043180088EA02038BEA0106BBEB010143EA0603C4
:1043280068EB02014BB1B1F1FF3F06DC4EF60451D8
:104338004FF08062CEF200010A60B9F832304D4683
:104348000022029E03EB430149F831B009EBC10199
:10435800C1F804808B4635F8304F4A733BF8102F6C
:10436800544588604FF6FF700E73A9F8322000F0AC
:10437800DB81D1E9008604EB4401029359F831004E
:1043880009EBC101496880EA080281EA06031A4379
:1043980040F03E81002500F094FEC0B2854200F056
:1043A80099818AE10025002614F0010008BF03F076
:1043B80004F903F00DF9044603F0FDF803F014F9CD
:1043C80015F10208DBF8105046F1000ADBF814601A
:1043D800BFF35F8FB5420AD00BF110002844007A72
:1043E80002900120A843BFF35F8FCBF8100014F0B0
:1043F800010008BF03F0E1F8B54200F0848203F041
:10440800E7F8039003F0D7F803F0EEF8DBF80000C4
:104418004FF6FF74B9F83020411CDBE90C36CBF8B5
:104428000010111B02EB420518BF09EBC50133430D
:1044380000F09F80A2420FD0D1E900128AEA02035D
:1044480088EA0106B8EB010143EA06036AEB0201B8
:104458004BB1B1F1FF3F06DC4EF604514FF08062DC
:10446800CEF200010A60B9F832304D460122029EB0
:1044780003EB430149F8318009EBC101C1F804A0FD
:104488008A4635F8304F4A733AF8102F88604FF64D
:10449800FF7084424FF6FF700E73A9F832203FF484
:1044A8005FAED1E9008604EB4401029359F831006C
:1044B80009EBC101496880EA080281EA06031A4348
:1044C80040F0B880002500F0FCFDC0B2854200F045
:1044D800458134E152450FD0D1E9001288EA020340
:1044E8008BEA0106BBEB010143EA060368EB020114
:1044F8004BB1B1F1FF3F06DC4EF604514FF080623C
:10450800CEF200010A60B9F832300022029E03EBB5
:10451800430149F831B009EBC101C1F80480C8462C
:104528000E738B4638F8306F4A733BF8102F564598
:1045380088604FF6FF70A9F8322000F07781CDE946
:104548000234D1E9005406EB460159F8310009EB71
:10455800C101496880EA050281EA04031A437CD153
:104568004FF0000800F0ADFDC0B2804500F0348186
:1045780025E1A2420FD0D1E900128AEA020388EAB3
:104588000106B8EB010143EA06036AEB02014BB1ED
:10459800B1F1FF3F06DC4EF604514FF08062CEF2D7
:1045A80000010A60B9F832104D4601910122029BC0
:1045B80001EB410149F8318009EBC101C1F804A0C0
:1045C8008B4635F8304F4FF6FF7A4A733BF8102F79
:1045D800544588604FF6FF700B73A9F8322000F03D
:1045E8008381D1E9008A04EB440159F8310009EBD1
:1045F800C101496880EA080281EA0A031A4341D1E5
:10460800002500F05EFDC0B2854200F0428136E12F
:10461800B0EB0800B1414AD46FF00042514061EA62
:104628000005002D18BF012500F04BFDC0B28542E2
:1046380050D042E0B0EB0800B1417AD46FF00042AC
:10464800514061EA0005002D18BF012500F039FD31
:10465800C0B2854200F0828071E0401BA14100F1A8
:10466800A7806FF00042514061EA0008B8F1000FDE
:1046780018BF4FF0010800F024FDC0B2804500F0DB
:10468800AB809CE0B0EB080071EB0A0100F1F1800F
:104698006FF00042514061EA0005002D18BF012566
:1046A80000F00FFDC0B2854200F0F380E7E0FF257F
:1046B80000F007FDC0B285420CD009F13005204654
:1046C80031E04FF0000A00F0FCFCC0B282454FF622
:1046D800FF7AF4D104EB440009EBC00535F8104F1C
:1046E80054451ED004EB440159F8310009EBC101CF
:1046F800496880EA080281EA06031A43E1D0B0EB70
:104708000800B1410AD46FF00042514061EA000A42
:10471800BAF1000F18BF4FF0010AD4E74FF0FF0AB3
:10472800D1E74FF6FF70029B039CABF800002B808B
:1047380080E0FF2500F0C5FCC0B285420ED009F12B
:10474800300520460BE54FF0000B00F0BAFCC0B274
:1047580083454CF6E84BC2F2000BF2D104EB44005F
:1047680009EBC0054FF6FF7035F8104F84423FF44F
:10477800F4AC04EB440159F8310009EBC101496874
:1047880080EA080281EA06031A43DCD0B0EB08008D
:10479800B1410AD46FF00042514061EA000BBBF10D
:1047A800000F18BF4FF0010BCFE74FF0FF0BCCE71E
:1047B8004FF0FF0800F085FCC0B280450CD009F12D
:1047C8003008304630E04FF0000A00F07AFCC0B202
:1047D80082454FF6FF7AF4D106EB460009EBC00894
:1047E80038F8106F56451DD006EB460159F83100D0
:1047F80009EBC101496880EA050281EA04031A430A
:10480800E1D0401BA1410AD46FF00042514061EA57
:10481800000ABAF1000F18BF4FF0010AD5E74FF0B0
:10482800FF0AD2E74FF6FF70DDE90234ABF800006B
:10483800A8F800304CF6E84B14F00100C2F2000B67
:1048480008BF02F0BAFE41F21401C4F2020108687E
:1048580080064FF4001058BF202048601421C4F28D
:1048680002010868C0044FF0805058BF4FF48050D0
:104878008CE4FF2500F025FCC0B2854209D009F17F
:10488800300520462EE0002600F01BFCC0B2864210
:10489800F7D104EB440009EBC0054FF6FF7035F87B
:1048A800104F84421CD004EB440159F8310009EB45
:1048B800C101496880EA080281EA0A031A43E2D082
:1048C800B0EB080071EB0A0108D46FF000425140C8
:1048D80061EA0006002E18BF0126D5E7FF26D3E7B8
:1048E8004FF6FF704FF6FF7AABF800004CF6E84B36
:1048F8000198C2F2000B2880FFF737BC4CF6D8406D
:10490800C0F6000003E04CF6E840C0F600004CF6A4
:10491800C84300904CF6F23004AAC0F60000C0F676
:1049280000032B2106F0DCF8FEDEF0B503AF2DE91D
:10493800000F81B04EF2100840F2000A4CF6E84B26
:10494800CEF20008C2F2000AC2F2000B02F040FEEA
:10495800814602F030FE02F047FEBAF830004FF60A
:10496800FF7188423FD000EB40015AF831C00AEB92
:10497800C101D1F804E0D8F80020DBE90E65D203C4
:1049880004D5013645F10005CBE90E658CEA06022F
:104998008EEA050442EA0403BCEB06046EEB05024A
:1049A8001BB3B4F1FF336FF0004372EB03031CD267
:1049B800D8F80030DB0308D5013645F10005BCEB1B
:1049C80006046EEB0502CBE90E656FF001031B1BB5
:1049D8006FF0004373EB020207D38CEA06028EEAFB
:1049E80005031A4301D0022609E0BAF832200B8ADF
:1049F8000D7B4E7BAAF83200AAF830300A8219F0F3
:104A0800010008BF02F0D9FD022E2FD002F0E0FD10
:104A1800044602F0D0FD02F0E7FDDBF82030F6078F
:104A28004AF6AB2604F00100CAF6AA260BEB4301AE
:104A380003F1010301F12402A3FB0664557014BFBE
:104A48000122002281F824200028BFF35F8F24F080
:104A5800010101EB5401A3EB0101CBF8201008BFC1
:104A680002F0ABFD4020C8F8F0016FE702F0B0FD9E
:104A7800044602F0A0FD02F0B7FDDBE90C0180F06E
:104A88000102084342EA010204F0010118BF0BF1D8
:104A9800380052B9D8F80020D20306D5D0E900234F
:104AA800013243F10003C0E9002331B901B0BDE888
:104AB800000FBDE8F04002F080BD01B0BDE8000F76
:104AC800F0BDF0B503AF4DF8048D86B00289D1E989
:104AD8000054012CB0F8028006884368ADF8042021
:104AE800D0F80A2000930292428AD0F80E3040692A
:104AF800ADF810200393059040F28480002005F063
:104B080056FF00BA032C4FEA1040288040F28080FC
:104B1800002003F039FF00BA042C4FEA10406880E7
:104B28005ED00620052C287163D90420072C6871F3
:104B380074D93046414605F049FF00BA000CE880B8
:104B4800684603F0F6FE034628790E4600F1080190
:104B5800A14269D886426CD105F10800194632464F
:104B680007F016FB02A804F0E6F80E46297903467A
:104B7800687901F108021118A1425FD8864262D112
:104B8800A8181946324607F003FB03A803F0D1FE24
:104B980003460E4628796979014401F10802111883
:104BA800A14255D8864259D1A8181946324607F06D
:104BB800EFFA05A804F0BFF8034628796A7902EBF2
:104BC800400000F10806B018A0424FD8914255D1D4
:104BD800A819194607F0DCFA06B05DF8048BF0BD99
:104BE8004CF674620420C0F60002042105F042FF6E
:104BF800FEDE4CF684620520C0F60002214605F070
:104C080039FFFEDE4CF684520220C0F6000231E085
:104C18004CF694520420C0F600022BE04CF6745275
:104C28000820C0F6000225E04CF6E452C0F6000267
:104C380012E04CF6F452C0F6000213E04CF604629F
:104C4800C0F6000208E04CF61462C0F6000209E063
:104C58004CF62462C0F6000208460BE04CF63462BB
:104C6800C0F60002314606F0A0FEFEDE4CF64462B5
:104C7800C0F60002214606F04EFEFEDE4CF65463F6
:104C88001046C0F600031A4606F08FFEFEDEF0B5A9
:104C980003AF2DE9000784B04C68012C40F28A80EC
:104CA8000D688246288800BA000C05F07AFE032CAD
:104CB80040F289800646688800BA000C03F04FFE6F
:104CC800042C65D0052C6CD0310404D1000404BF39
:104CD8002879062809D00320AAF8000006208AF8B7
:104CE800020004B0BDE80007F0BD68790428F2D1DD
:104CF800072C71D9E88800BA000C05F05DFE2A7906
:104D0800804602F10800A0426FD8894605F10801E3
:104D1800684603F0FAFD2879697900F1080250180D
:104D2800A0426AD8A81803F0F8FF06462A796879DD
:104D3800104400F108018818A04266D8294402A846
:104D480003F0E3FD2879697901EB400000F10802DE
:104D58005018A04261D8A81803F0DFFFBDF804106E
:104D6800029ABDF80C30009DCAF80450AAF8081041
:104D7800CAF80E20AAF81230CAF81400CAF80A6055
:104D8800AAF80290AAF8008004B0BDE80007F0BDB8
:104D98004CF694620420C0F60002042105F06AFE75
:104DA800FEDE4CF6A4620520C0F60002052105F0DF
:104DB80061FEFEDE4CF654520220C0F60002214687
:104DC80006F0A9FDFEDE4CF664520420C0F600028F
:104DD800214606F0A0FDFEDE4CF664620820C0F60F
:104DE8000002214606F097FDFEDE4CF6A452C0F6FE
:104DF8000002214606F08FFDFEDE4CF6B452C0F6E6
:104E08000002214606F087FDFEDE4CF6C452C0F6CD
:104E18000002214606F07FFDFEDE4CF6D452C0F6B5
:104E28000002214606F077FDFEDEF0B503AF4DF82F
:104E3800048D82B04C68002C51D00D680646452080
:104E4800012C287054D00020032C68706BD930884E
:104E5800052C00F1140000BA4FEA1040688068D9A8
:104E68000020072CA8806AD94020082CE88048D068
:104E7800307B9046717BB27B2A7203F0C7FD092C08
:104E880048D071680F2C687200915ED9684603F0AB
:104E980052FF04295FD10068132CE860B0680190C4
:104EA8005ED901A803F047FF04295FD10068286193
:104EB800404604F0F0F80021698160B128783C216F
:104EC80001EA80018C4259D3284605F0A2F8C04374
:104ED80000BA000C688102B05DF8048BF0BD4CF696
:104EE80030720020C0F60002002105F0C3FDFEDE8E
:104EF8004CF6D0720120C0F60002012105F0BAFD7F
:104F0800FEDE4DF210020820C0F60002082105F06E
:104F1800B1FDFEDE4CF660720920C0F600020921E0
:104F280005F0A8FDFEDE4CF6A0720420C0F60002D3
:104F380029E04CF6F0720620C0F6000223E04CF699
:104F480020720820C0F600021DE04CF67072102096
:104F5800C0F6000217E04CF68072C0F6000209E0C5
:104F68004CF640721420C0F600020CE04CF6507269
:104F7800C0F60002042006F018FDFEDE4CF6907222
:104F88000846C0F60002214606F0C5FCFEDEF0B574
:104F980003AF2DE900074D68002D61D00E68044667
:104FA800307800F0F000402818D1104604F06DF871
:104FB800D8B130783C2101EA80018D425FD3304678
:104FC80005F027F880B24FF6FF7188420DD00B200C
:104FD800207305202070BDE80007F0BD0B2020736A
:104FE80008202070BDE80007F0BD072D41D9F088E2
:104FF8006FF0C001084206D00B20207307202070F4
:10500800BDE80007F0BD71883C22307891FA81FA3A
:1050180002EA80084FEA1A41B8EB1A4F34D88D4299
:105028003AD30F2D3ED906F10C00042103F075FE8A
:10503800132D3DD9814606F110000421C8EB1A480A
:1050480003F06BFE0546707A03F026FE2073307A73
:105058006173C4E90089A560A073BDE80007F0BDCD
:105068004DF220020020C0F60002002105F002FDEA
:10507800FEDE4CF610720820C0F600021DE04CF669
:10508800B072C0F600020BE04DF200024046C0F6D6
:10509800000206F065FCFEDE4DF20002C0F60002DA
:1050A80008460AE04CF6E0721020C0F6000204E060
:1050B8004CF6C0721420C0F60002294606F02BFCFC
:1050C800FEDEFF207047B0B502AF40F2686443F6D9
:1050D8003000C4F247240125C4F85052C4F202003B
:1050E8000068C0F3406002F0CFF940F26421002864
:1050F800C4F247211CBF0020C1F80004DC20C4F220
:10510800272005600020C1F80054256065600D6007
:105118000860B0BD00200B22C4F20200416821F0F3
:1051280002014160016A62F307110162016802220B
:1051380062F383010160816841F00C01816070476E
:1051480000200B22C4F20200416821F08001416076
:10515800016A62F31F7101620168022262F38F31F2
:105168000160816841F440418160704740F200402D
:105178000B22C4F20200416821F400614160416AD7
:1051880062F30F3141620168022262F397510160B4
:10519800816841F440018160704740F200400B2271
:1051A800C4F20200416821F480514160416A62F30F
:1051B800134141620168022262F31961016081684A
:1051C80041F040718160704740F200400B22C4F208
:1051D8000200416821F400514160416A62F31751AD
:1051E80041620168022262F39B610160816841F0BB
:1051F80040618160704740F600000B22C4F2020053
:10520800416821F010014160016A62F313410162B3
:105218000168022262F309210160816841F440714A
:105228008160704740F600000B22C4F2020041681A
:1052380021F020014160016A62F31751016201689F
:10524800022262F38B210160816841F44061816030
:105258007047F0B503AF2DE9000F83B049F2180A83
:10526800D7E90258C4F2020A04465AF8180C9946BB
:10527800164640F001004AF8180C5AF8180C00F0CD
:10528800010002F002F90028F7D1002004F108011A
:1052980081E821017F21CFF60051C4E90069B9F105
:1052A800000F6061DAF8000040F0E46040F084002C
:1052B800CAF800005AF8180C00EA010046F280010A
:1052C800C0F2C12140EA01004AF8180C00F06A81D6
:1052D800A9F1010019F0030220F0604008D006F59A
:1052E800C361012A09D13346324603283BD2A7E0DD
:1052F80000223146032836D2A2E04FF4804306F15B
:105308002005736040F2F25CB560022A75686CF3A0
:105318000B057560F160356845F00045356006F5A8
:10532800436505D10B460A46294603281BD287E068
:10533800C6F81C3606F5C761C6F820162B46D6F8FF
:105348001C162A466CF30B01C6F81C16C6F8245620
:10535800D6F8181641F00041C6F8181641F248214F
:10536800314403286CD34FF4C36041F2482C09FB45
:10537800006E01EB0C0B019600264FF4804940F2B9
:10538800F2550846029444E0C3F8049003F1200261
:105398009A605A6865F30B025A6003F5C362DA60D3
:1053A8008A5942F000428A5103F5C762C3F81C9635
:1053B800C3F82026D3F81C2665F30B02C3F81C2675
:1053C80003F54362C3F82426D3F8182642F00042B6
:1053D800C3F81826C3F8349C03F54562C3F8382C83
:1053E800D3F8342C65F30B02C3F8342C0BEB06020C
:1053F800C3F83C2CD3F8302C06F5C35642F00042D3
:10540800C3F8302C00EB0C028B1900F5C350734520
:1054180012D08B19002AB7D0C2F8049002F12008E4
:10542800C2F80880546865F30B045460D3601468AC
:1054380044F000441460A7E7DDE90164A3F5C36301
:105448004FF4804040F2F251586003F12000986018
:10545800586861F30B0058600020D860596841F41F
:1054680000415960196841F000411960D4E903C34B
:10547800002B4AF80C6CDAF80010A06041F002002A
:10548800CAF800004FF001004AF8100C00F08F80B5
:10549800591E40F2000913F0030021F06042C7F2E0
:1054A800D00908D00CF5C365012809D166466046C5
:1054B800032A27D25FE000206546032A22D25AE059
:1054C8000CF543640228CCF800900CF12006CCF8C7
:1054D8000860CCF80C5005D12E4628462546032AEC
:1054E80010D248E00CF5C760CCF81896CCF8200626
:1054F80041F248200CEB000526462046CCF824460D
:10550800032A38D34FF4C36241F2482E03FB02C882
:1055180005EB0E0400262A46AB1900281FBFC0F869
:10552800009000F120018160C36003F1200045F87C
:105538000690986003F5C360D86003F5C760C3F8A8
:105548001896C3F8200603F54360C3F8240603F54C
:105558004560C3F8309CC3F8380CA01906F5C3564B
:10556800C3F83C0C02EB0E00AB1902F5C3524345DD
:10557800D2D1A3F5C36606F12000C6F80090B0604A
:105588000020F060306840F4001030604AF808CC21
:10559800DAF8000040F40050CAF8000003B0BDE893
:1055A800000FF0BD4DF27402C0F6000203E04DF2A8
:1055B800D802C0F600020020002105F05BFAFEDEEA
:1055C80049F21C00C4F20200016841F4803141F044
:1055D800410101604EF204104FF00051CEF200007C
:1055E80001607047F0B503AF2DE9000749F2140ACE
:1055F800C4F2020ADAF80060C6F3801001F043FF33
:10560800044606F0010001F03EFF8046B0B2C00B30
:1056180001F039FF40F241090646C0F20109CAF813
:105628000090DAF80050C5F3801001F02CFF05F067
:10563800010001F028FFA8B2C00B01F024FF68F3B5
:105648000824CAF8009066F310442046BDE8000715
:10565800F0BDD0B502AF044603F025FD03F013FDFD
:1056680003F011FD03F00FFD03F00DFD012040F2E2
:10567800F251C4E90010A06003F012FDE060D0BD53
:10568800B0B502AF82B00D680446684629462A467E
:1056980000F026F8009818B1019923C402B0B0BDF3
:1056A8000020206002B0B0BD01680120704780B5BD
:1056B8006F46416840F2F35291423EBF0068203085
:1056C80080BD4DF264020846C0F6000240F2F25175
:1056D80006F021F9FEDE016841F0004101607047E3
:1056E800F0B503AF4DF804BD49F208060546C4F20B
:1056F80002060C46F068C0F3424001F0C3FEC0B297
:10570800072835D8012101FA00F010F0AA0F2FD090
:10571800D4E90110884231D24FF4C362236800FBF8
:1057280002F69E59002E0DD400FB023213681B04AA
:105738000ED413689B0544BF13685FEAC35324D48F
:10574800012306E00020286028715DF804BBF0BD45
:1057580002232B71002613682E6043F00043136068
:105768000130884228BF0020A0605DF804BBF0BD6E
:1057780001203060D4E901108842CDD34DF2840273
:10578800C0F6000205F076F9FEDE1368C3F30D4398
:10579800C5E90023E4E780B56F46416840F2F3525B
:1057A80091423EBF0068203080BD4DF2C8020846D5
:1057B800C0F6000240F2F25106F0ADF8FEDE0168D4
:1057C80041F000410160704749F204000021C4F231
:1057D80002000160704780B56F4640F2F252914274
:1057E8000BD80268002A06D4426840F6FF739A4331
:1057F8000A43426080BD002080BD4DF2E8004DF2B2
:105808004C12C0F60000C0F60002312105F0F9F88C
:10581800FEDE80B56F46084601F013F847F6400CE7
:10582800C0F27D1C604559D340F6C061C0F2162114
:10583800884202D24FF0080E1BE048F2FF61C0F226
:105848009331884202D84FF00C0E12E04EF200114C
:10585800C0F2F551884202D24FF0000E09E04DF235
:1058680080114FF0100EC0F6F001884238BF4FF09B
:10587800040E48F210136FF0FF02C4F202039958A5
:1058880021F01C0141EA0E014FF6F06E9950CFF657
:10589800FF7E44F68C6153F80E20C0F200211143BC
:1058A80043F80E104FF6F461CFF6FF715A5842F0E4
:1058B800004242F001025A5053F8F81CC0F200119D
:1058C80043F8F81C6021C0F2020143F8041C4FF4AD
:1058D800E0311960196841F4001119600021604530
:1058E80038BF0121084680BD08464DF25C11C0F65C
:1058F80000010A2205F002BFF0B503AF2DE9000F41
:1059080085B040F2A0484FF00109C4F247289246FA
:105918000E468346C8F8009401F057FE002E1EBFBD
:10592800C8F800900020C8F80000514642F2080864
:1059380091E87C005846C4F201087CC0002040F67B
:10594800E442D8F80010CBE9052021F00100C8F89E
:1059580000009AE87C00694608467CC0584600F07A
:1059680015F8D8F8000040F00100C8F800005846C3
:1059780000F0D0F8DBF80000012804BFDBF80400D1
:10598800CBF8140005B0BDE8000FF0BDF0B503AFCB
:105998004DF804BD42F2080491F80AE0C4F201048B
:1059A8000A7A4B7ABEF1000F91F80BC04DF23826F7
:1059B800D4F8FC52C0F6000625F4403545EA024505
:1059C800C4F8FC5254F8045C25F0407545EA0365B8
:1059D80044F8045C256825F4006518BF05F50065E2
:1059E800256054F8045CBCF1000F437283F0020395
:1059F80025F48075027218BF05F580754A7B44F856
:105A0800045CDBB282F0080556F82550266826F0BB
:105A18007C5635430E7B45EA067525604DF2082510
:105A280080F80AE0C0F6000555F82330256842736F
:105A38008A7B836125F0020380F80BC0002A067375
:105A4800827318BF02332360CA7BC273930707D0DF
:105A58004FF4807C012A14BF4FF40072002200E04A
:105A68009446266842EA0C020B7C26F440760374BE
:105A7800324322609A0708D0012B4FF0200314BF4D
:105A88004FF0000C4FF4806C00E09C4654F8042C56
:105A980022F020021A4344F8042C22680B6822F4EE
:105AA80080624E7C467442EA0C022260012B04BFDD
:105AB800496841615DF804BBF0BDD0B502AF42F260
:105AC8000804C4F20104206840F00100206054F882
